:100000000C9464000C948C000C948C000C948C0068
:100010000C948C000C948C000C948C000C948C0030
:100020000C948C000C948C000C948C000C948C0020
:100030000C948C000C948C000C948C000C948C0010
:100040000C94540C0C948C000C94C40E0C948C00E6
:100050000C948C000C948C000C948C000C948C00F0
:100060000C948C000C948C000000000024002700ED
:100070002A0000000000250028002B0000000000DE
:1000800023002600290004040404040404040202DA
:100090000202020203030303030301020408102007
:1000A0004080010204081020010204081020000012
:1000B0000007000201000003040600000000000029
:1000C0000000E5014A10DE0111241FBECFEFD8E089
:1000D000DEBFCDBF12E0A0E0B1E0E6E9F2E302C08E
:1000E00005900D92A031B107D9F712E0A0E1B2E07E
:1000F00001C01D92A93DB107E1F710E0C6ECD0E0C8
:1001000004C02297FE010E94E818C23CD107C9F73B
:100110000E94F1040C943E190C940000FC0120E0B4
:1001200030E08081882311F421E030E0C901089596
:10013000FC0181E0808308950895FC010190F08125
:10014000E02DE60FF71F80810895DC01ED91FC9111
:100150001197309751F014968D919C9115976817CF
:10016000790718F4E60FF71F40830895FC019B01FF
:10017000848195816817790728F460817181611500
:10018000710529F41092340264E372E002C0620F38
:10019000731FCB010895FC010190F081E02DE60F63
:1001A000F71F808108950895813029F0813050F043
:1001B000853070F407C083E090E09093D70180937E
:1001C000D601089582E090E09093D7018093D60104
:1001D0000895CF93DF93EC01CB017B836A83019673
:1001E0000E945D1399838883009721F41B821A82F1
:1001F0001D821C82DF91CF9108951F93CF93DF93CF
:10020000EC01162F81E090E09D838C83CE0161E0AC
:1002100070E00E94E900E881F981309721F01083B5
:10022000E881F9811182DF91CF911F9108951F9389
:10023000CF93DF93EC01162F81E090E09D838C83B8
:10024000CE0161E070E00E94E900E881F981309719
:1002500021F01083E881F9811182DF91CF911F9104
:1002600008951F93CF93DF93EC01162F81E090E068
:100270009D838C83CE0161E070E00E94E900E881FB
:10028000F981309721F01083E881F9811182DF91A3
:10029000CF911F9108951F93CF93DF93EC01162FF9
:1002A00081E090E09D838C83CE0161E070E00E944C
:1002B000E900E881F981309721F01083E881F98124
:1002C0001182DF91CF911F9108950E945D130895CF
:1002D000FC0180819181009711F00E946B128DE0EA
:1002E00061E00E94F30D8DE061E00E94190E6AEF5B
:1002F00070E080E090E00E94D00C8DE060E00E9411
:10030000190E6AEF70E080E090E00E94D00CEBCF15
:100310008130910579F56F5F7F4F09F04EC01092E3
:100320002D0210922C0210922F0210922E02109287
:100330003102109230021092330210923202109267
:1003400029021092280282E090E00E945D139093AF
:100350002B0280932A02009731F488E292E060E059
:1003600071E00E94680182E090E090932D028093FA
:100370002C020895892B09F56F5F7F4FF1F480916E
:100380002A0290912B020E94071410922B021092C5
:100390002A02109229021092280210922D02109225
:1003A0002C0210922F0210922E0210923102109203
:1003B00030021092330210923202089580E090E0F1
:1003C0006FEF7FEF0E948801089581E090E06FEF6A
:1003D0007FEF0E9488010895AF92BF92CF92DF9283
:1003E000EF92FF920F931F93CF93DF938C016B01DA
:1003F0001616170624F060E371E00E946801C6013A
:100400000E945D13EC01009729F4C80165E671E0D4
:100410000E946801D8011696AD90BC901797EE2403
:10042000FF2418C0FE01EE0DFF1DD80118968D9116
:100430009C91199714966D917C9115978E0D9F1D27
:100440000E948218280F391FD9018C91808308944B
:10045000E11CF11CF80122813381EA14FB0414F33E
:10046000C9010E940714D8011396DC93CE9312970A
:1004700019961C921E92189716968D919C9117971B
:100480001B969C938E931A971596DC92CE92149796
:10049000DF91CF911F910F91FF90EF90DF90CF9060
:1004A000BF90AF9008951F93CF93DF93EC018E819F
:1004B0009F81892B29F4CE016FE971E00E946801C8
:1004C00028853985EA81FB81E20FF31F10812F5FB8
:1004D0003F4F398728878E819F8101979F838E8325
:1004E0008C819D812817390711F419861886EE81B1
:1004F000FF81309791F02C813D81C90164E070E06B
:100500000E9482186E177F0744F0C90162E070E014
:100510000E948218CE010E94EC01812FDF91CF91C1
:100520001F9108951F9388E292E00E945302182FB2
:1005300088E292E00E945302E12FF0E0E05FFD4F7D
:100540001082882311F081E080831F9108951F930A
:1005500088E292E00E945302182F88E292E00E9403
:100560005302E12FF0E0EA5EFD4F1082882311F084
:1005700081E080831F9108950F931F9388E292E09A
:100580000E945302182F88E292E00E945302082F23
:10059000812F602F0E94F30DE12FF0E0E85EFD4F08
:1005A0001082002311F481E080831F910F91089540
:1005B000FF920F931F9308E212E0C8010E945302BA
:1005C000F82EC8010E945302682F8F2D0E94190E29
:1005D0001F910F91FF9008951F93182F60912E0285
:1005E00070912F0280912C0290912D02681779074B
:1005F00031F4660F771F88E292E00E94EC0180914F
:10060000320290913302E0912A02F0912B02E80F1E
:10061000F91F1F7710830196909333028093320263
:1006200020912C0230912D028217930721F4109211
:1006300033021092320280912E0290912F02019685
:1006400090932F0280932E028091D6019091D70132
:1006500001979093D7018093D6011F9108951F931E
:10066000182F04C088E292E00E94530280912E026B
:1006700090912F02892BB1F780912C0290912D023D
:10068000892B31F488E292E060E070E00E94EC0196
:100690008091320290913302E0912A02F0912B0274
:1006A000E80FF91F10830196909333028093320272
:1006B00020912C0230912D028217930721F4109281
:1006C00033021092320280912E0290912F020196F5
:1006D00090932F0280932E02113029F0113030F0C8
:1006E000153050F403C083E090E002C082E090E057
:1006F0009093D7018093D6011F9108950F931F9374
:100700008C01FC01808191810E940714F801138201
:100710001282158214821F910F9108950E9407146E
:1007200008950F931F93CF93DF93C0E0D0E0FE01B5
:10073000E05FFD4F8081882351F182EC92E062E01E
:1007400070E040E050E00E94EF11BE01606882EC72
:1007500092E040E050E00E94EF118C2F0E94710D5A
:100760008C01682F606882EC92E070E040E050E01D
:100770000E94EF11000F012F001F110B006882EC87
:1007800092E0602F70E040E050E00E94EF1121966F
:10079000C630D10561F6DF91CF911F910F91089579
:1007A000EF92FF920F931F93CF93DF93CAE1D2E0B2
:1007B000EE24FF2407E0F701EA5EFD4F80818823E5
:1007C00009F464C082EC92E061E070E040E050E047
:1007D0000E94EF11B701606882EC92E040E050E0C7
:1007E0000E94EF11902F95508881882311F410E01A
:1007F00004C0892F0E94710E182F902F9450898168
:10080000882331F0892F0E94710E880F991F182BB1
:10081000902F93508A81882341F0892F0E94710E76
:10082000880F991F880F991F182B902F92508B813A
:10083000882349F0892F0E94710E43E0880F991F89
:100840004A95E1F7182B902F91508C81882349F01D
:10085000892F0E94710E34E0880F991F3A95E1F7B5
:10086000182B8D81882349F0802F0E94710E25E07E
:10087000880F991F2A95E1F7182B106882EC92E0F7
:10088000612F70E040E050E00E94EF110894E11CFD
:10089000F11C0A5F2696033109F08DCFDF91CF91CD
:1008A0001F910F91FF90EF9008950E94D0030E9436
:1008B00091030895EF92FF920F931F9308E212E0C5
:1008C000C8010E945302E82EC8010E945302F82E6C
:1008D000C8010E945302682F6795662767956F29A4
:1008E0008E2D70E00E94930D1F910F91FF90EF905D
:1008F000089588E292E00E9453028230A1F0833092
:1009000028F4882399F0813099F40AC0833029F0C3
:10091000843071F40E94D8020BC00E94BC0208C04F
:100920000E945A0405C00E94A70202C00E949202BF
:100930008FEF9FEF9093D7018093D601089582ECBB
:1009400092E00E94DC0F892BD9F082EC92E00E94A9
:100950000710282F90E0880F892F881F990B892B6B
:1009600021F4822F0E942F0303C0822F0E94EC02E9
:100970008091D6019091D701892B11F40E947904BE
:100980000E949C0C20912402309125024091260265
:1009900050912702621B730B840B950B2091D2019F
:1009A0003091D3014091D4015091D50126173707DA
:1009B0004807590760F40E9455040E949C0C6093FC
:1009C00024027093250280932602909327020895B3
:1009D00082EC92E040E051EE60E070E00E94550F42
:1009E00008950E94330D0E94E8040E949F04FDCFE9
:1009F000FC01808191810E94341508950F931F930B
:100A0000CF93DF93FC018B0141155105A1F06115D6
:100A1000710589F084819581EA0121978C179D07E2
:100A200008F4EC0160817181C801AE010E94981543
:100A3000C00FD11F1882DF91CF911F910F910895A0
:100A40000F931F93CF93DF93FC018B014115510549
:100A5000A1F06115710589F084819581EA012197E2
:100A60008C179D0708F4EC0160817181C801AE010B
:100A70000E949815C00FD11F1882DF91CF911F914E
:100A80000F910895FC01DB0114962D913C9115976F
:100A900084819581821B930B8417950710F480E065
:100AA0000895808191816D917C91840F951FA9019A
:100AB0000E948A159C0180E0232B09F481E00895AF
:100AC000FC01DB012481358114968D919C91159751
:100AD0002817390710F480E00895CF0140E050E076
:100AE0000E9442050895DF92EF92FF920F931F93A9
:100AF000CF93DF93EC018C819D8148175907C8F48F
:100B00007A010894E11CF11CE881F981EE0DFF1DCA
:100B1000D080108208811981772767FD7095C80100
:100B20000E94A7159C010E0D1F1DF801D082009791
:100B300019F4EFEFFFEF05C088819981F901E81BF7
:100B4000F90BCF01DF91CF911F910F91FF90EF90A3
:100B5000DF900895FC0144815581415050400E942E
:100B600073050895CF93DF93FC01DB0184819581A8
:100B70004817590760F4C081D1816D917C91CE01F5
:100B8000840F951F0E94B2159C01009719F42FEF56
:100B90003FEF02C02C1B3D0BC901DF91CF9108959F
:100BA00040E050E00E94B2050895CF93DF93FC012E
:100BB000848195814817590768F4C081D1817727CE
:100BC00067FD7095CE01840F951F0E946F159C01E3
:100BD000009719F42FEF3FEF02C02C1B3D0BC9010A
:100BE000DF91CF91089540E050E00E94D50508952F
:100BF000DC01FB0114962D913C9115978481958120
:100C00002817390711F080E00895608171818D9176
:100C10009C910E947A159C0180E0232B09F481E0CD
:100C20000895FC01DB012481358114968D919C91FE
:100C300015972817390710F480E00895281B390B01
:100C4000808191816D917C91820F931F0E947A1512
:100C50009C0180E0232B09F481E00895DC01FB0175
:100C6000608171818D919C910E947A15292F332783
:100C700027FD3095209530952227330F221F3327EB
:100C8000C9010895DC01FB01608171818D919C9106
:100C90000E947A1540E050E01816190614F041E061
:100CA00050E0CA010895DC01FB01608171818D91E2
:100CB0009C910E947A1540E050E01816190614F431
:100CC00041E050E0CA010895DC01FB0160817181BF
:100CD0008D919C910E947A15292F332727FD3095FD
:100CE0002227330F221F3327C9010895DC01FB019E
:100CF00014962D913C911597848195812817390779
:100D000051F4608171818D919C910E947A159C01B2
:100D100080E0232B09F081E090E00895DC01FB01E5
:100D200014962D913C911597848195812817390748
:100D300011F080E00BC0608171818D919C910E94C7
:100D40007A159C0180E0232B09F481E090E008955E
:100D5000FC01DB016D917C91808191810E947A156B
:100D600008950F931F93CF93DF93EC018B01FB0149
:100D7000648175818C819D81680F791F7D836C836F
:100D80008A819B8186179707B8F46F5F7F4F8881B0
:100D900099810E945F144C815D81009729F09983AD
:100DA00088835B834A8308C0F80184819581481B4E
:100DB000590B5D834C8307C0F80160817181888184
:100DC00099810E946415CE01DF91CF911F910F91FF
:100DD00008950E94B10608950F931F93CF93DF9358
:100DE000EC018B018617970709F1FB0124813581FE
:100DF0008C819D818217930750F4888199810E948C
:100E00000714F80164817581CE010E94E9002881F0
:100E100039812115310551F0F801848195819D8337
:100E20008C8360817181C9010E948315CE01DF919D
:100E3000CF911F910F9108950F931F93CF93DF933D
:100E40008C01EB016C817D81FC01758364830E94C0
:100E5000E900F80180819181009721F06881798112
:100E60000E948315DF91CF911F910F9108950F93E9
:100E70001F93CF93DF938C01EB016C817D81FC018B
:100E8000758364830E94E900F80180819181009755
:100E900021F0688179810E948315DF91CF911F91A4
:100EA0000F910895EF92FF920F931F93DF93CF93CB
:100EB000CDB7DEB7A1970FB6F894DEBF0FBECDBF9A
:100EC0008C01CB01BA017E010894E11CF11CA70141
:100ED0002AE030E00E943616F70101900020E9F781
:100EE0003197EE19FF09D8011596FC93EE931497EC
:100EF000C801BF010E94E900F8018081918100973B
:100F000019F0B7010E948315A1960FB6F894DEBFC1
:100F10000FBECDBFCF91DF911F910F91FF90EF904A
:100F20000895EF92FF920F931F93DF93CF93CDB766
:100F3000DEB7A1970FB6F894DEBF0FBECDBF8C0110
:100F4000CB01BA017E010894E11CF11CA7012AE043
:100F500030E00E943616F70101900020E9F7319742
:100F6000EE19FF09D8011596FC93EE931497C8016A
:100F7000BF010E94E900F80180819181009719F07A
:100F8000B7010E948315A1960FB6F894DEBF0FBE7D
:100F9000CDBFCF91DF911F910F91FF90EF900895FA
:100FA000EF92FF920F931F93DF93CF93CDB7DEB7EE
:100FB000A1970FB6F894DEBF0FBECDBF8C019A018A
:100FC00080E090E07E010894E11CF11CA7010E94E2
:100FD0003616F70101900020E9F73197EE19FF0965
:100FE000D8011596FC93EE931497C801BF010E9497
:100FF000E900F80180819181009719F0B7010E9402
:101000008315A1960FB6F894DEBF0FBECDBFCF916A
:10101000DF911F910F91FF90EF900895EF92FF9253
:101020000F931F93DF93CF93CDB7DEB7A1970FB682
:10103000F894DEBF0FBECDBF8C019A0180E090E036
:101040007E010894E11CF11CA7010E943616F701ED
:1010500001900020E9F73197EE19FF09D8011596A4
:10106000FC93EE931497C801BF010E94E900F801B8
:1010700080819181009719F0B7010E948315A19694
:101080000FB6F894DEBF0FBECDBFCF91DF911F9199
:101090000F91FF90EF9008950F931F93CF93DF93DD
:1010A0008C01EB016115710511F4C1EDD1E0FE0178
:1010B00001900020E9F73197EC1BFD0BD801159644
:1010C000FC93EE931497C801BF010E94E900F80158
:1010D00080819181009719F0BE010E948315DF91F4
:1010E000CF911F910F910895AF92BF92CF92DF924F
:1010F000EF92FF920F931F93CF93DF93B82EA92EF9
:101100006B01C82FD92FFB0160817181CE010E9434
:101110004C08EE24FF2410C0088119810E0D1F1DFC
:10112000F8018081992787FD90950E94FC18F801AD
:1011300080830894E11CF11CF60184819581E816F6
:10114000F90650F38B2D9A2DDF91CF911F910F91BE
:10115000FF90EF90DF90CF90BF90AF900895AF9247
:10116000BF92CF92DF92EF92FF920F931F93CF9394
:10117000DF93B82EA92E6B01C82FD92FFB016081F8
:101180007181CE010E944C08EE24FF2410C008811A
:1011900019810E0D1F1DF8018081992787FD9095FB
:1011A0000E94F418F80180830894E11CF11CF601F8
:1011B00084819581E816F90650F38B2D9A2DDF91E5
:1011C000CF911F910F91FF90EF90DF90CF90BF9044
:1011D000AF900895EF92FF920F931F93DF93CF93F9
:1011E000CDB7DEB72C970FB6F894DEBF0FBECDBFDC
:1011F000FC017B018617970711F401E029C02481C7
:101200003581DB0114968D919C911597281739072C
:1012100011F000E01DC0CE010196BF010E94AF0891
:1012200009811A81CE010796B7010E94AF086F812C
:101230007885C8010E947A1500E0009709F401E062
:10124000CE0107960E947E03CE0101960E947E0386
:10125000802F2C960FB6F894DEBF0FBECDBFCF9176
:10126000DF911F910F91FF90EF900895CF92DF9241
:10127000EF92FF921F93CF93DF936C017B01B90133
:101280002417350710F4BA01A901D70114968D91DE
:101290009C911597EB018617970708F4EC01D7018D
:1012A000ED91FC911197EC0FFD1F108110826D9153
:1012B0007C91640F751FC6010E944C08D701ED9107
:1012C000FC91EC0FFD1F1083C601DF91CF911F91A0
:1012D000FF90EF90DF90CF9008950F931F938C01B4
:1012E000FB01248135810E943609C8011F910F91AD
:1012F00008958F929F92AF92BF92CF92DF92EF921A
:10130000FF920F931F93DF93CF9300D000D000D0B4
:10131000CDB7DEB75C016B01DB0114968D919C911A
:1013200015970097A1F101974817590780F1F5012A
:10133000848195814817590750F5ED91FC91008102
:101340007A014E010894811C911C1FC0D501ED91BA
:10135000FC91EE0DFF1D80818017A1F4F601248120
:1013600035812E0D3F1DC401B501A7010E9436092C
:10137000C401B6010E94F805182FC4010E947E0323
:10138000112341F40894E108F108F7FEDFCFEE24C1
:10139000EA94FE2CC70126960FB6F894DEBF0FBE66
:1013A000CDBFCF91DF911F910F91FF90EF90DF9014
:1013B000CF90BF90AF909F908F900895FC01DB017C
:1013C0004481558114968D919C911597481B590B1A
:1013D000CF010E9479090895AF92BF92CF92DF9218
:1013E000EF92FF920F931F93DF93CF9300D000D023
:1013F00000D0CDB7DEB75C018B01DB016D917C9134
:101400006115710521F4B8010E941C0742C0CE018C
:1014100001960E944C08F801E480F580CC24DD247C
:1014200010C0D801ED91FC91EC0DFD1D8081992734
:1014300087FD90950E94EC18892B31F00894C11C0F
:10144000D11CCE14DF0468F3ED80FE800DC0D801FE
:10145000ED91FC91EE0DFF1D8081992787FD909500
:101460000E94EC18892B31F00894E108F108CE14A1
:10147000DF0468F30894E11CF11CC5018E010F5FC5
:101480001F4FB801A60197010E943609C8010E94AA
:101490007E03C50126960FB6F894DEBF0FBECDBF02
:1014A000CF91DF911F910F91FF90EF90DF90CF9040
:1014B000BF90AF9008952F923F924F925F926F929C
:1014C0007F928F929F92AF92BF92CF92DF92EF92D4
:1014D000FF920F931F93DF93CF93CDB7DEB768973B
:1014E0000FB6F894DEBF0FBECDBF3C01FB012A0151
:1014F0001901608171816115710521F4BF010E949C
:101500001C075AC07E010894E11CF11CC7010E940F
:101510004C088E01095F1F4FC80161ED71E00E9408
:101520004C08D02EC12EBDE08B2E912C8C0E9D1E12
:10153000A3E1AA2EB12CAC0EBD1E24C0C401B7017C
:1015400040E050E098010E9436098D2D9C2DB40199
:101550000E94B106C4010E947E038D2D9C2DB10115
:101560000E94B106F20144815581400F511FC5010F
:10157000B7010E946D09C701B5010E94EC06C501C3
:101580000E947E03C701B2010E94D0058C01FFEFCB
:101590008F3F9F0799F68D2D9C2DB7010E94B106B4
:1015A000C3016D2D7C2D0E941C078D2D9C2D0E944A
:1015B0007E03C7010E947E03C30168960FB6F894AC
:1015C000DEBF0FBECDBFCF91DF911F910F91FF9076
:1015D000EF90DF90CF90BF90AF909F908F907F90D3
:1015E0006F905F904F903F902F900895DF92EF9211
:1015F000FF920F931F93DF93CF9300D000D000D0C2
:10160000CDB7DEB77C01FB01142FD22E6081718132
:101610006115710521F4BF010E941C071CC0CE0199
:1016200001960E944C0889819A81012F112707FD9C
:10163000109501C0D082B8010E946F15FC0100977F
:10164000C9F7C7018E010F5F1F4FB8010E941C0729
:10165000C8010E947E03C70126960FB6F894DEBF2C
:101660000FBECDBFCF91DF911F910F91FF90EF90F3
:10167000DF9008950F931F93CF93DF938C01EB01BD
:101680006115710511F4C1EDD1E0FE01019000205A
:10169000E9F73197EC1BFD0BD8011596FC93EE93FF
:1016A0001497C801BF010E94E900F801808191816F
:1016B000009719F0BE010E948315DF91CF911F9111
:1016C0000F910895EF92FF920F931F93DF93CF93A3
:1016D000CDB7DEB7A1970FB6F894DEBF0FBECDBF72
:1016E0008C01CB01BA017E010894E11CF11CA70119
:1016F0000E94ED15F70101900020E9F73197EE19EE
:10170000FF09D8011596FC93EE931497C801BF0109
:101710000E94E900F80180819181009719F0B701DA
:101720000E948315A1960FB6F894DEBF0FBECDBF01
:10173000CF91DF911F910F91FF90EF900895EF925D
:10174000FF920F931F93DF93CF93CDB7DEB7A1978F
:101750000FB6F894DEBF0FBECDBF8C01CB01BA012E
:101760007E010894E11CF11CA7010E94ED15F70110
:1017700001900020E9F73197EE19FF09D80115967D
:10178000FC93EE931497C801BF010E94E900F80191
:1017900080819181009719F0B7010E948315A1966D
:1017A0000FB6F894DEBF0FBECDBFCF91DF911F9172
:1017B0000F91FF90EF900895EF92FF920F931F9378
:1017C000DF93CF93CDB7DEB7A1970FB6F894DEBF06
:1017D0000FBECDBF8C01CB017E010894E11CF11C32
:1017E000B7010E94CC15F70101900020E9F731976D
:1017F000EE19FF09D8011596FC93EE931497C801D2
:10180000BF010E94E900F80180819181009719F0E1
:10181000B7010E948315A1960FB6F894DEBF0FBEE4
:10182000CDBFCF91DF911F910F91FF90EF90089561
:10183000EF92FF920F931F93DF93CF93CDB7DEB755
:10184000A1970FB6F894DEBF0FBECDBF8C01CB01C0
:101850007E010894E11CF11CB7010E94CC15F70130
:1018600001900020E9F73197EE19FF09D80115968C
:10187000FC93EE931497C801BF010E94E900F801A0
:1018800080819181009719F0B7010E948315A1967C
:101890000FB6F894DEBF0FBECDBFCF91DF911F9181
:1018A0000F91FF90EF9008951F920F920FB60F9235
:1018B00011242F933F938F939F93AF93BF93809166
:1018C000390290913A02A0913B02B0913C023091D2
:1018D0003D020196A11DB11D232F2D5F2D3720F054
:1018E0002D570196A11DB11D20933D028093390211
:1018F00090933A02A0933B02B0933C028091350250
:1019000090913602A0913702B09138020196A11D44
:10191000B11D8093350290933602A0933702B093A5
:101920003802BF91AF919F918F913F912F910F906E
:101930000FBE0F901F9018958FB7F8942091390221
:1019400030913A0240913B0250913C028FBFB90165
:10195000CA0108959FB7F89420913502309136025C
:10196000409137025091380286B5A89B06C08F3F40
:1019700021F02F5F3F4F4F4F5F4F9FBF542F432F9B
:10198000322F2227280F311D411D511D82E0220FC9
:10199000331F441F551F8A95D1F7B901CA01089515
:1019A0009B01AC017FB7F89480913502909136028B
:1019B000A0913702B091380266B5A89B05C06F3F71
:1019C00019F00196A11DB11D7FBFBA2FA92F982F25
:1019D0008827860F911DA11DB11D62E0880F991FF8
:1019E000AA1FBB1F6A95D1F7BC012DC0FFB7F894A1
:1019F0008091350290913602A0913702B091380261
:101A0000E6B5A89B05C0EF3F19F00196A11DB11DD9
:101A1000FFBFBA2FA92F982F88278E0F911DA11DC8
:101A2000B11DE2E0880F991FAA1FBB1FEA95D1F7ED
:101A3000861B970B885E9340C8F22150304040408F
:101A4000504068517C4F211531054105510571F613
:101A50000895019739F0880F991F880F991F0297F1
:101A60000197F1F70895789484B5826084BD84B5B8
:101A7000816084BD85B5826085BD85B5816085BD89
:101A8000EEE6F0E0808181608083E1E8F0E01082A2
:101A9000808182608083808181608083E0E8F0E0E3
:101AA000808181608083E1EBF0E0808184608083CD
:101AB000E0EBF0E0808181608083EAE7F0E0808104
:101AC0008460808380818260808380818160808364
:101AD0008081806880831092C10008958093D8012E
:101AE0000895982F8E3008F09E5097708091D801FD
:101AF0008295880F880F807C892B80937C00809151
:101B00007A00806480937A0080917A0086FDFCCF11
:101B10002091780040917900942F80E030E0282BCC
:101B2000392BC90108951F93CF93DF93182FEB0131
:101B300061E00E94F30D209709F44AC0CF3FD10520
:101B400009F449C0E12FF0E0E255FF4F8491833062
:101B5000C1F0843028F4813051F08230B1F50CC0EE
:101B6000863019F1873049F1843079F514C084B595
:101B7000806884BDC7BD33C084B5806284BDC8BDE4
:101B80002EC080918000806880938000D09389006F
:101B9000C093880024C08091800080628093800080
:101BA000D0938B00C0938A001AC08091B0008068E7
:101BB0008093B000C093B30012C08091B0008062E7
:101BC0008093B000C093B4000AC0C038D1051CF4A3
:101BD000812F60E002C0812F61E00E94190EDF9129
:101BE000CF911F910895482F50E0CA0186569F4F0C
:101BF000FC0124914A575F4FFA0184918823C1F078
:101C0000E82FF0E0EE0FFF1FE859FF4FA591B491C8
:101C1000662341F49FB7F8948C91209582238C938E
:101C20009FBF08959FB7F8948C91822B8C939FBF90
:101C30000895482F50E0CA0182559F4FFC0124911E
:101C4000CA0186569F4FFC0134914A575F4FFA01F3
:101C50009491992309F444C0222351F1233071F067
:101C6000243028F42130A1F0223011F514C02630A0
:101C7000B1F02730C1F02430D9F404C08091800045
:101C80008F7703C0809180008F7D8093800010C08B
:101C900084B58F7702C084B58F7D84BD09C08091E3
:101CA000B0008F7703C08091B0008F7D8093B0002B
:101CB000E92FF0E0EE0FFF1FEE58FF4FA591B49112
:101CC000662341F49FB7F8948C91309583238C93CD
:101CD0009FBF08959FB7F8948C91832B8C939FBFDF
:101CE0000895682F70E0CB0182559F4FFC0124912D
:101CF000CB0186569F4FFC0144916A577F4FFB01F1
:101D00009491992319F420E030E03CC0222351F152
:101D1000233071F0243028F42130A1F0223011F565
:101D200014C02630B1F02730C1F02430D9F404C0FB
:101D3000809180008F7703C0809180008F7D809399
:101D4000800010C084B58F7702C084B58F7D84BDBC
:101D500009C08091B0008F7703C08091B0008F7D63
:101D60008093B000892F90E0880F991F84589F4F6F
:101D7000FC01A591B4918C9120E030E0842311F016
:101D800021E030E0C90108951F920F920FB60F9223
:101D900011242F933F934F938F939F93EF93FF9330
:101DA0004091C600E091BE02F091BF0231969F01C2
:101DB0002F77307031978091C0029091C10228171F
:101DC000390739F0E25CFD4F40833093BF02209326
:101DD000BE02FF91EF919F918F914F913F912F9173
:101DE0000F900FBE0F901F9018958F92AF92CF92C9
:101DF000DF92EF92FF920F931F93DF93CF93CDB7B4
:101E0000DEB7FC018DED91E0918380837383628363
:101E1000558344833783268311870087F386E286C0
:101E2000D586C486A68687868D85808B8E85818B98
:101E30008F85828BCF91DF911F910F91FF90EF9053
:101E4000DF90CF90AF908F9008958F92AF92CF9206
:101E5000DF92EF92FF920F931F93DF93CF93CDB753
:101E6000DEB7FC018DED91E0918380837383628303
:101E7000558344833783268311870087F386E28660
:101E8000D586C486A68687868D85808B8E85818B38
:101E90008F85828BCF91DF911F910F91FF90EF90F3
:101EA000DF90CF90AF908F900895CF93DF93EC01A8
:101EB0009A01AB01E885F985203081EE380780E092
:101EC000480780E0580709F449C081E090E00A889B
:101ED00002C0880F991F0A94E2F7808360E079E0DE
:101EE0008DE390E00E94B7182150304040405040B0
:101EF000CA01B90122E030E040E050E00E94B7188A
:101F0000EC81FD813083EE81FF812083EA85FB85B2
:101F1000208141E050E0CA010E8402C0880F991F61
:101F20000A94E2F7282B2083EA85FB852081CA01E9
:101F30000F8402C0880F991F0A94E2F7282B208390
:101F4000EA85FB858081088802C0440F551F0A94EA
:101F5000E2F7842B8083DF91CF910895108220E1F6
:101F600030E0CECFFC01A285B3854C9121E030E07A
:101F7000C901068402C0880F991F0A94E2F7809570
:101F800084238C93A285B3854C91C901078402C038
:101F9000880F991F0A94E2F7809584238C93A28579
:101FA000B3858C91008802C0220F331F0A94E2F798
:101FB000209528232C930895DC011296ED91FC9135
:101FC0001397E058FF4F2191319180819181281B17
:101FD000390B2F773070C9010895DC011296ED910D
:101FE000FC911397EE57FF4F20813181929182919E
:101FF000E058F0408217930719F42FEF3FEF05C028
:10200000E20FF31F8081282F30E0C9010895DC0121
:102010001296ED91FC911397DF01AE57BF4F2D91B2
:102020003C911197E058FF4F80819181E058F0403A
:102030008217930719F42FEF3FEF0BC0E20FF31F46
:1020400080812F5F3F4F2F7730702D933C93282F47
:1020500030E0C9010895DC011296ED91FC911397CF
:10206000EE57FF4F80819181929382930895FC01F6
:10207000A085B18521898C9190E0022E02C09595B2
:1020800087950A94E2F780FFF6CF0484F585E02D6A
:10209000608308958DED91E09093C3028093C20216
:1020A0008EE392E09093C5028093C40285EC90E0A9
:1020B0009093C7028093C60284EC90E09093C9028B
:1020C0008093C80280EC90E09093CB028093CA0288
:1020D00081EC90E09093CD028093CC0286EC90E06E
:1020E0009093CF028093CE0284E08093D00283E06D
:1020F0008093D10287E08093D20285E08093D3025F
:1021000081E08093D40208950F931F93CF93DF93C0
:102110008C01EB0109C02196D801ED91FC91019051
:10212000F081E02DC801099568816623A1F7DF9150
:10213000CF911F910F910895EF92FF920F931F93EC
:10214000CF93DF938C017B01EA010CC0D7016D9125
:102150007D01D801ED91FC910190F081E02DC80145
:1021600009952197209791F7DF91CF911F910F91BA
:10217000FF90EF900895DC01ED91FC910280F381D6
:10218000E02D09950895CF92DF92EF92FF920F9381
:102190001F93CF93DF936C017B01C0E0D0E00EC0B2
:1021A000D601ED91FC9100811181C701BE010E9411
:1021B000CB00682FC601F80109952196F7018481AB
:1021C0009581C817D90760F3DF91CF911F910F91C7
:1021D000FF90EF90DF90CF9008952F923F924F9213
:1021E0005F926F927F928F929F92AF92BF92CF92A7
:1021F000DF92EF92FF920F931F93DF93CF93CDB7B0
:10220000DEB7A0970FB6F894DEBF0FBECDBF1C019E
:102210006A017B01411551056105710549F440E3EF
:1022200050E060E070E020E030E00E94B91156C05C
:10223000882499245401422E55246624772401E0F1
:1022400010E00C0F1D1F080D191DC701B601A301D9
:1022500092010E949518F80160830894811C911CDA
:10226000A11CB11CC701B601A30192010E949518DF
:10227000C901DA016C017D01C114D104E104F1044A
:10228000F1F681E0E82EF12CEC0EFD1EE80CF91CB5
:102290003E010894611C711CD501C4010197A1097C
:1022A000B1096C01C818D90816C0F601EE0DFF1D62
:1022B00040814A3010F4405D01C0495C552747FD1C
:1022C0005095652F752FC10120E030E00E94B911B3
:1022D0000894E108F1086E147F0439F7A0960FB650
:1022E000F894DEBF0FBECDBFCF91DF911F910F914C
:1022F000FF90EF90DF90CF90BF90AF909F908F9026
:102300007F906F905F904F903F902F900895DC01E9
:102310002115310541F4ED91FC910190F081E02D02
:10232000642F099508950E94ED100895EF92FF9291
:102330000F931F939A017B0100E010E0B801A70101
:102340000E9487111F910F91FF90EF900895EF92D7
:10235000FF920F931F939A01E62EFF2400E010E0F6
:10236000B801A7010E9487111F910F91FF90EF9074
:102370000895EF92FF920F931F93CF93DF93EC0199
:102380007A018B012115310541F4E881F981019031
:10239000F081E02D642F09951BC02A303105B1F47E
:1023A00077FF10C04DE250E060E070E020E030E0E8
:1023B0000E94B91110950095F094E094E11CF11C75
:1023C000011D111DCE01B801A7012AE00E94ED10E8
:1023D000DF91CF911F910F91FF90EF900895EF92B1
:1023E000FF920F931F937B019A010027F7FC009542
:1023F000102FB801A7010E94B9111F910F91FF90F2
:10240000EF900895EF92FF920F931F93E62E9A019B
:10241000FF24E7FCF0940F2D1F2DB801A7010E94A7
:10242000B9111F910F91FF90EF9008950F931F9393
:102430008C014DE050E060E070E020E030E00E9470
:10244000B911C8014AE050E060E070E020E030E0FF
:102450000E94B9111F910F9108950F931F938C0142
:102460000E948711C8010E9416121F910F910895B2
:10247000CF92DF92EF92FF920F931F938C019A01FC
:102480006B01EE24FF24B701A6010E948711C80149
:102490000E9416121F910F91FF90EF90DF90CF9046
:1024A0000895CF92DF92EF92FF920F931F938C01CA
:1024B0009A01C62EDD24EE24FF24B701A6010E9456
:1024C0008711C8010E9416121F910F91FF90EF9083
:1024D000DF90CF9008950F931F938C010E94BB1043
:1024E000C8010E9416121F910F9108950F931F9318
:1024F0008C010E94C310C8010E9416121F910F91F7
:1025000008950F931F938C010E94B911C8010E9476
:1025100016121F910F910895CF92DF92EF92FF92C2
:102520000F931F938C016B019A01EE24D7FCE0946A
:10253000FE2CB701A6010E94B911C8010E94161213
:102540001F910F91FF90EF90DF90CF900895CF9261
:10255000DF92EF92FF920F931F938C01C62E9A0188
:10256000DD24C7FCD094ED2CFD2CB701A6010E9400
:10257000B911C8010E9416121F910F91FF90EF90A0
:10258000DF90CF9008959F92AF92BF92CF92DF924B
:10259000EF92FF920F931F93CF93DF93EC017A0199
:1025A0008B01922ECB01BA0120E030E040E050E0F8
:1025B0000E94D01688236CF4CE014DE250E060E01A
:1025C00070E020E030E00E94B91117FB109517F978
:1025D000109520E030E040E05FE3AA240BC0CA0180
:1025E000B90120E030E040E251E40E94D4169B01A2
:1025F000AC01A394A91498F3C801B7010E946C160A
:102600005B016C010E9441177B018C01CE01B80176
:10261000A7012AE030E00E948711992029F0CE011D
:102620006DEF71E00E94BB10C801B7010E946D17E9
:102630009B01AC01C601B5010E946B1622C020E0CF
:1026400030E040E251E40E941F187B018C010E949F
:102650003C175B016C01CC24B7FCC094DC2CCE0190
:10266000B601A5012AE030E00E94B911C601B5010A
:102670000E946F179B01AC01C801B7010E946B1645
:102680009A949920E1F6DF91CF911F910F91FF90DD
:10269000EF90DF90CF90BF90AF909F9008950E94F1
:1026A000C31208950F931F938C010E94C312C80197
:1026B0000E9416121F910F910895CF93DF93BC01D2
:1026C0008230910510F462E070E0A091D702B091E1
:1026D000D802ED01E0E0F0E040E050E021C0888168
:1026E00099818617970769F48A819B81309719F041
:1026F0009383828304C09093D8028093D702FE0113
:1027000034C06817790738F44115510519F084175A
:10271000950708F4AC01FE018A819B819C01E901C7
:102720002097E9F641155105A9F1CA01861B970BBF
:10273000049708F4BA01E0E0F0E02AC08D919C9182
:10274000119784179507F9F46417750781F41296A9
:102750008D919C911397309719F09383828304C0D5
:102760009093D8028093D702FD0132964CC0CA01E3
:10277000861B970BFD01E80FF91F61937193029778
:102780008D939C9340C0FD01828193819C01D9016E
:102790001097A1F68091D5029091D602892B41F431
:1027A00080910B0290910C029093D6028093D502F7
:1027B00040910D0250910E024115510541F44DB763
:1027C0005EB78091090290910A02481B590B209133
:1027D000D5023091D602CA01821B930B8617970748
:1027E00080F0AB014E5F5F4F8417950750F0420FAA
:1027F000531F5093D6024093D502F9016193719310
:1028000002C0E0E0F0E0CF01DF91CF910895CF93D7
:10281000DF93009709F450C0EC0122971B821A82C3
:10282000A091D702B091D802109709F140E050E092
:10283000AC17BD0708F1BB83AA83FE01219131913A
:10284000E20FF31FAE17BF0779F48D919C9111979A
:10285000280F391F2E5F3F4F3983288312968D91A1
:102860009C9113979B838A834115510571F4D093F2
:10287000D802C093D70220C012968D919C911397D5
:10288000AD01009711F0DC01D3CFFA01D383C283ED
:1028900021913191E20FF31FCE17DF0769F4888190
:1028A0009981280F391F2E5F3F4FFA013183208312
:1028B0008A819B8193838283DF91CF910895A0E0E9
:1028C000B0E0E5E6F4E10C9409196C01009729F4F5
:1028D000CB010E945D136C01C1C08EEF882E8FEF7B
:1028E000982E8C0C9D1C8601060F171F08151905C4
:1028F00008F4B2C0F401A081B181A617B707B8F0FF
:10290000A530B10508F4AAC0CD0104978617970732
:1029100008F4A4C01297A61BB70BF801A193B193BA
:10292000D4016D937C93CF010E94071497C07B0163
:10293000EA1AFB0AEEEFFFEFEE0EFF1E36016A0EFB
:102940007B1EC091D702D091D80244245524AA24DA
:10295000BB244AC0C615D705E1F5488159814E15FB
:102960005F05B8F1CA0104978E159F05B0F4129661
:10297000A40FB51FF401B183A0832A813B814114C8
:10298000510431F0D20113963C932E93129766C0F6
:102990003093D8022093D70261C08A819B81F801CD
:1029A00093838283425050404E195F095183408384
:1029B0004114510431F0D20113961C930E931297D7
:1029C00004C01093D8020093D702F401718360838E
:1029D00045C088819981A816B90608F45C012E01CA
:1029E0008A819B819C01E901209709F0B3CF8091F6
:1029F000D5029091D60286159705E9F4A616B7067A
:102A0000D0F420910D0230910E022115310541F4D0
:102A10002DB73EB78091090290910A02281B390B0D
:102A200002171307C8F41093D6020093D502D401FD
:102A30006D937C9313C0CB010E945D13EC01009752
:102A400059F0F40140815181B6010E945B15C60125
:102A50000E9407146E0102C0CC24DD24C601CDB74C
:102A6000DEB7E0E10C9425191F93FC019927882714
:102A7000BC01E89411911032E9F3193010F01E30C6
:102A8000C8F31B3251F01D3249F4689406C00E940D
:102A90002116610F711D811D911D119110531A3066
:102AA000B0F33EF490958095709561957F4F8F4F70
:102AB0009F4F1F910895FB01DC0102C001900D9210
:102AC00041505040D8F70895FB01DC010D900020E3
:102AD000E9F7119701900D920020E1F70895FC01AC
:102AE0008191861721F08823D9F799270895319786
:102AF000CF010895FB01DC018D9101908019011037
:102B0000D9F3990B0895FB01DC0101900D9200208F
:102B1000E1F70895FB01DC014150504030F08D9108
:102B20000190801919F40020B9F7881B990B0895BA
:102B3000FB01DC014150504048F001900D92002013
:102B4000C9F701C01D9241505040E0F70895FC01C3
:102B500081E090E00190061609F4CF010020D1F742
:102B600001970895FB0151915523A9F0BF01DC01A4
:102B70004D9145174111E1F759F4CD010190002025
:102B800049F04D9140154111C9F3FB014111EFCFBF
:102B900081E090E001970895FB019F01E8944230A5
:102BA000C4F04532B4F44A3029F497FB1EF49095F2
:102BB00081959F4F642F77270E94D218805D8A33BA
:102BC0000CF0895D8193CB010097A1F716F45DE2CB
:102BD00051931082C9010C945B16FA01CF93FF93B5
:102BE000EF93223044F1253234F5C22FE894CA30F5
:102BF00049F497FB3EF490958095709561957F4FD1
:102C00008F4F9F4F2C2F332744275527FF93EF9348
:102C10000E949518EF91FF91605D6A330CF0695D39
:102C20006193B901CA01605070408040904051F7F3
:102C300016F4CDE2C19310828F919F91CF910C94A5
:102C40005B16592F482F372F262F660F771F881FA7
:102C5000991F660F771F881F991F620F731F841FAC
:102C6000951F660F771F881F991F0895FA01CF934C
:102C7000FF93EF932230CCF02532BCF4C22F2C2FDF
:102C8000332744275527FF93EF930E949518EF9120
:102C9000FF91605D6A330CF0695D6193B901CA010F
:102CA000605070408040904051F710828F919F910A
:102CB000CF910C945B16DC01FC01672F7191772397
:102CC000E1F7329704C07C916D9370836291AE17E7
:102CD000BF07C8F308955058BB27AA270ED075C167
:102CE00066D130F06BD120F031F49F3F11F41EF427
:102CF0005BC10EF4E095E7FB51C1E92F77D180F37A
:102D0000BA17620773078407950718F071F49EF5E8
:102D10008FC10EF4E0950B2EBA2FA02D0B01B90137
:102D200090010C01CA01A0011124FF27591B99F041
:102D3000593F50F4503E68F11A16F040A22F232F4D
:102D4000342F4427585FF3CF469537952795A7959D
:102D5000F0405395C9F77EF41F16BA0B620B730B44
:102D6000840BBAF09150A1F0FF0FBB1F661F771FB5
:102D7000881FC2F70EC0BA0F621F731F841F48F46A
:102D8000879577956795B795F7959E3F08F0B3CFF0
:102D90009395880F08F09927EE0F979587950895DA
:102DA000D9D008F481E008950CD00FC107D140F0CC
:102DB000FED030F021F45F3F19F0F0C0511139C15D
:102DC000F3C014D198F39923C9F35523B1F3951B9C
:102DD000550BBB27AA2762177307840738F09F5F3C
:102DE0005F4F220F331F441FAA1FA9F333D00E2EAB
:102DF0003AF0E0E830D091505040E695001CCAF718
:102E000029D0FE2F27D0660F771F881FBB1F2617DC
:102E100037074807AB07B0E809F0BB0B802DBF01AF
:102E2000FF2793585F4F2AF09E3F510568F0B6C0C8
:102E300000C15F3FECF3983EDCF38695779567958C
:102E4000B795F7959F5FC9F7880F911D9695879560
:102E500097F90895E1E0660F771F881FBB1F62177F
:102E600073078407BA0720F0621B730B840BBA0B3D
:102E7000EE1F88F7E095089504D06894B111D9C089
:102E80000895BCD088F09F5790F0B92F9927B7517B
:102E9000A0F0D1F0660F771F881F991F1AF0BA951E
:102EA000C9F712C0B13081F0C3D0B1E00895C0C0FD
:102EB000672F782F8827B85F39F0B93FCCF3869514
:102EC00077956795B395D9F73EF490958095709571
:102ED00061957F4F8F4F9F4F0895E89409C097FBEE
:102EE0003EF490958095709561957F4F8F4F9F4FE1
:102EF0009923A9F0F92F96E9BB279395F695879525
:102F000077956795B795F111F8CFFAF4BB0F11F4E7
:102F100060FF1BC06F5F7F4F8F4F9F4F16C088238E
:102F200011F096E911C0772321F09EE8872F762FC4
:102F300005C0662371F096E8862F70E060E02AF005
:102F40009A95660F771F881FDAF7880F96958795F1
:102F500097F90895990F0008550FAA0BE0E8FEEFC6
:102F600016161706E807F907C0F012161306E4074D
:102F7000F50798F0621B730B840B950B39F40A2646
:102F800061F0232B242B252B21F408950A2609F424
:102F9000A140A6958FEF811D811D089597F99F6728
:102FA00080E870E060E008959FEF80EC08950024D1
:102FB0000A941616170618060906089500240A949E
:102FC00012161306140605060895092E0394000C24
:102FD00011F4882352F0BB0F40F4BF2B11F460FFB3
:102FE00004C06F5F7F4F8F4F9F4F089557FD9058DC
:102FF000440F551F59F05F3F71F04795880F97FBBD
:10300000991F61F09F3F79F0879508951216130676
:103010001406551FF2CF4695F1DF08C016161706A5
:103020001806991FF1CF86957105610508940895DA
:10303000E894BB2766277727CB0197F908950BD033
:10304000C4CFB5DF28F0BADF18F0952309F0A6CF7A
:10305000ABCF1124EECFCADFA0F3959FD1F3950F2C
:1030600050E0551F629FF001729FBB27F00DB11D0C
:10307000639FAA27F00DB11DAA1F649F6627B00D9C
:10308000A11D661F829F2227B00DA11D621F739F85
:10309000B00DA11D621F839FA00D611D221F749F93
:1030A0003327A00D611D231F849F600D211D822FDA
:1030B000762F6A2F11249F5750408AF0E1F0882321
:1030C0004AF0EE0FFF1FBB1F661F771F881F91502E
:1030D0005040A9F79E3F510570F060CFAACF5F3FE7
:1030E000ECF3983EDCF3869577956795B795F79561
:1030F000E7959F5FC1F7FE2B880F911D96958795E9
:1031000097F9089597FB092E07260AD077FD04D07A
:1031100049D006D000201AF4709561957F4F08952C
:10312000F6F7909581959F4F0895A1E21A2EAA1B5C
:10313000BB1BFD010DC0AA1FBB1FEE1FFF1FA21767
:10314000B307E407F50720F0A21BB30BE40BF50B64
:10315000661F771F881F991F1A9469F760957095ED
:10316000809590959B01AC01BD01CF01089597FB1F
:10317000092E05260ED057FD04D0D7DF0AD0001C3B
:1031800038F450954095309521953F4F4F4F5F4F04
:103190000895F6F790958095709561957F4F8F4FC4
:1031A0009F4F0895AA1BBB1B51E107C0AA1FBB1F5D
:1031B000A617B70710F0A61BB70B881F991F5A95C3
:1031C000A9F780959095BC01CD010895EE0FFF1FE2
:1031D0000590F491E02D0994911116C0803219F0F8
:1031E00089508550D0F708959111089581548A51DE
:1031F00008F4805E855A08959111089581568A5188
:1032000008F48052855808959927882708952F92A9
:103210003F924F925F926F927F928F929F92AF9266
:10322000BF92CF92DF92EF92FF920F931F93CF93B3
:10323000DF93CDB7DEB7CA1BDB0B0FB6F894DEBF4A
:103240000FBECDBF09942A88398848885F846E8470
:103250007D848C849B84AA84B984C884DF80EE80BA
:10326000FD800C811B81AA81B981CE0FD11D0FB6C3
:10327000F894DEBF0FBECDBFED01089510E0C6EC9F
:10328000D0E004C0FE010E94E8182296C83CD10795
:06329000C9F7F894FFCF1E
:1032960051554555453A20696E7375666669636989
:1032A600656E74206D656D6F727920746F20696E1E
:1032B600697469616C697A652071756575652E003A
:1032C60051554555453A206572726F722064756591
:1032D60020746F20756E646573697261626C652017
:1032E60073697A6520666F722071756575652073DE
:1032F600697A652E0051554555453A20696E7375B4
:103306006666696369656E74206D656D6F72792096
:10331600746F20696E697469616C697A6520746579
:103326006D706F726172792071756575652E0051C9
:10333600554555453A2063616E277420706F70209D
:103346006974656D2066726F6D2071756575653A75
:1033560020717565756520697320656D7074792EA9
:1033660000000F000000FFFF01000000003710847E
:10337600109C10DC0F0710ED0F2B1000000000D37F
:103386000084109C10D300D300D300D3002E00007D
:10339600000000D30084109C102000D90200000019
:00000001FF
