:100000000C9464000C948C000C948C000C948C0068
:100010000C948C000C948C000C948C000C948C0030
:100020000C948C000C948C000C948C000C948C0020
:100030000C948C000C948C000C948C000C948C0010
:100040000C940D0D0C948C000C947D0F0C948C0072
:100050000C948C000C948C000C948C000C948C00F0
:100060000C948C000C948C000000000024002700ED
:100070002A0000000000250028002B0000000000DE
:1000800023002600290004040404040404040202DA
:100090000202020203030303030301020408102007
:1000A0004080010204081020010204081020000012
:1000B0000007000201000003040600000000000029
:1000C000000005020311FE0111241FBECFEFD8E08E
:1000D000DEBFCDBF12E0A0E0B1E0E8E0F4E302C093
:1000E00005900D92A232B107D9F713E0A2E2B2E077
:1000F00001C01D92AB33B107E1F710E0C6ECD0E0D0
:1001000004C02297FE010E94A119C23CD107C9F781
:100110000E94AA050C94F7190C94000063507040DB
:1001200080409040E2E6F2E0E60FF71F80810895FC
:10013000FC0120E030E08081882311F421E030E0F0
:10014000C9010895FC0181E0808308950895FC01B0
:100150000190F081E02DE60FF71F80810895DC010A
:10016000ED91FC911197309751F014968D919C91DF
:1001700015976817790718F4E60FF71F408308955D
:10018000FC019B01848195816817790728F46081BF
:1001900071816115710529F41092960266E972E089
:1001A00002C0620F731FCB010895FC010190F08122
:1001B000E02DE60FF71F808108950895813029F022
:1001C000813050F0853070F407C083E090E0909368
:1001D000E9018093E801089582E090E09093E901BD
:1001E0008093E8010895CF93DF93EC01CB017B83EB
:1001F0006A8301960E94161499838883009721F4DC
:100200001B821A821D821C82DF91CF9108951F9359
:10021000CF93DF93EC01162F81E090E09D838C83D8
:10022000CE0161E070E00E94F300E881F98130972F
:1002300021F01083E881F9811182DF91CF911F9124
:1002400008951F93CF93DF93EC01162F81E090E088
:100250009D838C83CE0161E070E00E94F300E88111
:10026000F981309721F01083E881F9811182DF91C3
:10027000CF911F9108951F93CF93DF93EC01162F19
:1002800081E090E09D838C83CE0161E070E00E946C
:10029000F300E881F981309721F01083E881F9813A
:1002A0001182DF91CF911F9108951F93CF93DF9318
:1002B000EC01162F81E090E09D838C83CE0161E0FC
:1002C00070E00E94F300E881F981309721F01083FB
:1002D000E881F9811182DF91CF911F9108950E94E9
:1002E000161408956350704080409040FB01EE5911
:1002F000FD4F6D5F7F4F8F4F9F4F4083442319F415
:10030000862F60E002C0862F61E00E94AC0E089547
:10031000FC0180819181009711F00E9424138DE0EF
:1003200061E00E94AC0E8DE061E00E94D20E6AEFA7
:1003300070E080E090E00E94890D8DE060E00E9416
:10034000D20E6AEF70E080E090E00E94890DEBCF62
:100350008130910579F56F5F7F4F09F04EC01092A3
:100360008F0210928E0210929102109290021092BF
:10037000930210929202109295021092940210929F
:100380008B0210928A0282E090E00E9416149093F1
:100390008D0280938C02009731F48AE892E060E04D
:1003A00071E00E94880182E090E090938F02809338
:1003B0008E020895892B09F56F5F7F4FF1F48091CC
:1003C0008C0290918D020E94C01410928D021092A6
:1003D0008C0210928B0210928A0210928F0210925D
:1003E0008E0210929102109290021092930210923B
:1003F00092021092950210929402089580E090E08B
:100400006FEF7FEF0E94A801089581E090E06FEF09
:100410007FEF0E94A8010895AF92BF92CF92DF9222
:10042000EF92FF920F931F93CF93DF938C016B0199
:100430001616170624F060E371E00E948801C601D9
:100440000E941614EC01009729F4C80165E671E0DA
:100450000E948801D8011696AD90BC901797EE24A3
:10046000FF2418C0FE01EE0DFF1DD80118968D91D6
:100470009C91199714966D917C9115978E0D9F1DE7
:100480000E943B19280F391FD9018C918083089451
:10049000E11CF11CF80122813381EA14FB0414F3FE
:1004A000C9010E94C014D8011396DC93CE93129711
:1004B00019961C921E92189716968D919C911797DB
:1004C0001B969C938E931A971596DC92CE92149756
:1004D000DF91CF911F910F91FF90EF90DF90CF9020
:1004E000BF90AF9008951F93CF93DF93EC018E815F
:1004F0009F81892B29F4CE016FE971E00E94880168
:1005000028853985EA81FB81E20FF31F10812F5F77
:100510003F4F398728878E819F8101979F838E83E4
:100520008C819D812817390711F419861886EE8170
:10053000FF81309791F02C813D81C90164E070E02A
:100540000E943B196E177F0744F0C90162E070E01A
:100550000E943B19CE010E940C02812FDF91CF91A6
:100560001F9108951F938AE892E00E947302182F4A
:100570008AE892E00E947302E12FF0E0EE58FD4F0E
:100580001082882311F081E080831F9108951F93CA
:100590008AE892E00E947302182F8AE892E00E9493
:1005A0007302E12FF0E0E858FD4F1082882311F02C
:1005B00081E080831F9108950F931F938AE892E052
:1005C0000E947302182F8AE892E00E947302082F9B
:1005D000812F602F0E94AC0EE12FF0E0E658FD4F16
:1005E0001082002311F481E080831F910F91089500
:1005F000FF920F931F930AE812E0C8010E94730252
:10060000F82EC8010E947302682F8F2D0E94D20E0F
:100610001F910F91FF9008951F93182F60919002E2
:100620007091910280918E0290918F0268177907E4
:1006300031F4660F771F8AE892E00E940C028091E5
:10064000940290919502E0918C02F0918D02E80F56
:10065000F91F1F771083019690939502809394025F
:1006600020918E0230918F028217930721F410920D
:1006700095021092940280919002909191020196BD
:1006800090939102809390028091E8019091E9010A
:1006900001979093E9018093E8011F9108951F93BA
:1006A000182F04C08AE892E00E94730280919002A1
:1006B00090919102892BB1F780918E0290918F02D7
:1006C000892B31F48AE892E060E070E00E940C022D
:1006D0008091940290919502E0918C02F0918D02AC
:1006E000E80FF91F1083019690939502809394026E
:1006F00020918E0230918F028217930721F410927D
:10070000950210929402809190029091910201962C
:100710009093910280939002113029F0113030F0C3
:10072000153050F403C083E090E002C082E090E016
:100730009093E9018093E8011F9108950F931F930F
:100740008C01FC01808191810E94C014F801138208
:100750001282158214821F910F9108950E94C01475
:1007600008950F931F93CF93DF93C0E0D0E0FE0175
:10077000EE58FD4F8081882351F184E293E062E0DE
:1007800070E040E050E00E94A812BE01606884E280
:1007900093E040E050E00E94A8128C2F0E942A0EA5
:1007A0008C01682F606884E293E070E040E050E0E4
:1007B0000E94A812000F012F001F110B006884E295
:1007C00093E0602F70E040E050E00E94A812219674
:1007D000C630D10561F6DF91CF911F910F91089539
:1007E000EF92FF920F931F93CF93DF93CCE7D2E06A
:1007F000EE24FF2407E0F701E858FD4F80818823AD
:1008000009F464C084E293E061E070E040E050E00D
:100810000E94A812B701606884E293E040E050E0D3
:100820000E94A812902F95508881882311F410E01F
:1008300004C0892F0E942A0F182F902F945089816D
:10084000882331F0892F0E942A0F880F991F182BB7
:10085000902F93508A81882341F0892F0E942A0F7C
:10086000880F991F880F991F182B902F92508B81FA
:10087000882349F0892F0E942A0F43E0880F991F8F
:100880004A95E1F7182B902F91508C81882349F0DD
:10089000892F0E942A0F34E0880F991F3A95E1F7BB
:1008A000182B8D81882349F0802F0E942A0F25E084
:1008B000880F991F2A95E1F7182B106884E293E0BE
:1008C000612F70E040E050E00E94A8120894E11C03
:1008D000F11C0A5F2696033109F08DCFDF91CF918D
:1008E0001F910F91FF90EF9008950E94F0030E94D6
:1008F000B1030895EF92FF920F931F939B01AC01F8
:10090000EDEFEE2EEFEFFE2EEFEF0E2FEFEF1E2F9F
:10091000E60EF71E081F191FF701EE59FD4F8081E3
:10092000882391F42E3031054105510524F0822FA2
:100930000E942A0E03C0822F0E942A0F9C01442786
:1009400037FD4095542F0BC0F701EE0FFF1FEE0F40
:10095000FF1FEE5DFD4F2081318142815381B9013E
:10096000CA011F910F91FF90EF9008950E947A04A1
:1009700020E0611571058105910509F021E0822FC4
:100980000895EF92FF920F931F930AE812E0C801B7
:100990000E947302E82EC8010E947302F82EC8015B
:1009A0000E947302682F6795662767956F298E2DC1
:1009B00070E00E944C0E1F910F91FF90EF900895F0
:1009C0008AE892E00E9473028230A1F0833028F41A
:1009D000882399F0813099F40AC0833029F084305B
:1009E00071F40E94F8020BC00E94DC0208C00E9451
:1009F000C10405C00E94C70202C00E94B2028FEF6C
:100A00009FEF9093E9018093E8010895EF92FF92A0
:100A10000F931F937B018C01DC01CB010397A1098C
:100A2000B109FC01EE0FFF1FEE0FFF1FEE5DFD4F42
:100A300020833183428353838E599D4FFC018081F3
:100A4000813019F0823051F405C08E2D622F0E9442
:100A5000D20E04C08E2DB9010E944C0E1F910F9131
:100A6000FF90EF900895442329F021E030E040E02A
:100A700050E004C020E030E040E050E00E94060575
:100A800008950CC084E293E061ED71E00E942413AC
:100A90006CE271E080E090E00E94890D84E293E0D6
:100AA0000E949510181619066CF7089584E293E0D9
:100AB0000E949510892BD9F084E293E00E94C01027
:100AC000282F90E0880F892F881F990B892B21F4FC
:100AD000822F0E944F0303C0822F0E940C0380913B
:100AE000E8019091E901892B11F40E94E0040E9431
:100AF000550D2091860230918702409188025091D5
:100B00008902621B730B840B950B2091E4013091D9
:100B1000E5014091E6015091E701261737074807A4
:100B2000590760F40E9475040E94550D6093860277
:100B3000709387028093880290938902089584E2DB
:100B400093E040E051EE60E070E00E940E100E94E1
:100B5000410508950E94EC0D0E949F050E945605D4
:100B6000FDCFFC01808191810E94ED1508950F93C6
:100B70001F93CF93DF93FC018B0141155105A1F029
:100B80006115710589F084819581EA0121978C179F
:100B90009D0708F4EC0160817181C801AE010E94DB
:100BA0005116C00FD11F1882DF91CF911F910F9165
:100BB00008950F931F93CF93DF93FC018B01411591
:100BC0005105A1F06115710589F084819581EA01D3
:100BD00021978C179D0708F4EC0160817181C80191
:100BE000AE010E945116C00FD11F1882DF91CF9124
:100BF0001F910F910895FC01DB0114962D913C91FA
:100C0000159784819581821B930B8417950710F4A7
:100C100080E00895808191816D917C91840F951F72
:100C2000A9010E9443169C0180E0232B09F481E076
:100C30000895FC01DB012481358114968D919C91EE
:100C400015972817390710F480E00895CF0140E088
:100C500050E00E94FB050895DF92EF92FF920F9300
:100C60001F93CF93DF93EC018C819D814817590727
:100C7000C8F47A010894E11CF11CE881F981EE0DB9
:100C8000FF1DD080108208811981772767FD70953C
:100C9000C8010E9460169C010E0D1F1DF801D08234
:100CA000009719F4EFEFFFEF05C088819981F901F2
:100CB000E81BF90BCF01DF91CF911F910F91FF90AE
:100CC000EF90DF900895FC014481558141505040E0
:100CD0000E942C060895CF93DF93FC01DB018481F1
:100CE00095814817590760F4C081D1816D917C913D
:100CF000CE01840F951F0E946B169C01009719F47A
:100D00002FEF3FEF02C02C1B3D0BC901DF91CF91AC
:100D1000089540E050E00E946B060895CF93DF9362
:100D2000FC01848195814817590768F4C081D181FD
:100D3000772767FD7095CE01840F951F0E942816B6
:100D40009C01009719F42FEF3FEF02C02C1B3D0BC5
:100D5000C901DF91CF91089540E050E00E948E06D6
:100D60000895DC01FB0114962D913C911597848127
:100D700095812817390711F080E00895608171810D
:100D80008D919C910E9433169C0180E0232B09F4E5
:100D900081E00895FC01DB012481358114968D9159
:100DA0009C9115972817390710F480E00895281BA7
:100DB000390B808191816D917C91820F931F0E94EC
:100DC00033169C0180E0232B09F481E00895DC01B7
:100DD000FB01608171818D919C910E943316292FB6
:100DE000332727FD3095209530952227330F221F7A
:100DF0003327C9010895DC01FB01608171818D9168
:100E00009C910E94331640E050E01816190614F029
:100E100041E050E0CA010895DC01FB01608171816D
:100E20008D919C910E94331640E050E018161906EF
:100E300014F441E050E0CA010895DC01FB01608137
:100E400071818D919C910E943316292F332727FDA4
:100E500030952227330F221F3327C9010895DC0163
:100E6000FB0114962D913C9115978481958128174B
:100E7000390751F4608171818D919C910E943316E4
:100E80009C0180E0232B09F081E090E00895DC01D3
:100E9000FB0114962D913C9115978481958128171B
:100EA000390711F080E00BC0608171818D919C91B8
:100EB0000E9433169C0180E0232B09F481E090E02E
:100EC0000895FC01DB016D917C91808191810E94EC
:100ED000331608950F931F93CF93DF93EC018B018B
:100EE000FB01648175818C819D81680F791F7D83F1
:100EF0006C838A819B8186179707B8F46F5F7F4F59
:100F0000888199810E9418154C815D81009729F094
:100F1000998388835B834A8308C0F8018481958123
:100F2000481B590B5D834C8307C0F80160817181B8
:100F3000888199810E941D16CE01DF91CF911F916A
:100F40000F9108950E946A0708950F931F93CF93FE
:100F5000DF93EC018B018617970709F1FB012481D0
:100F600035818C819D818217930750F48881998106
:100F70000E94C014F80164817581CE010E94F300C3
:100F8000288139812115310551F0F801848195813D
:100F90009D838C8360817181C9010E943C16CE01C2
:100FA000DF91CF911F910F9108950F931F93CF93CE
:100FB000DF938C01EB016C817D81FC01758364837F
:100FC0000E94F300F80180819181009721F06881EF
:100FD00079810E943C16DF91CF911F910F91089566
:100FE0000F931F93CF93DF938C01EB016C817D8175
:100FF000FC01758364830E94F300F8018081918174
:10100000009721F0688179810E943C16DF91CF9191
:101010001F910F910895EF92FF920F931F93DF930B
:10102000CF93CDB7DEB7A1970FB6F894DEBF0FBE52
:10103000CDBF8C01CB01BA017E010894E11CF11CEB
:10104000A7012AE030E00E94EF16F701019000208E
:10105000E9F73197EE19FF09D8011596FC93EE9345
:101060001497C801BF010E94F300F80180819181AB
:10107000009719F0B7010E943C16A1960FB6F8949C
:10108000DEBF0FBECDBFCF91DF911F910F91FF90BB
:10109000EF900895EF92FF920F931F93DF93CF93FA
:1010A000CDB7DEB7A1970FB6F894DEBF0FBECDBFA8
:1010B0008C01CB01BA017E010894E11CF11CA7014F
:1010C0002AE030E00E94EF16F70101900020E9F7D6
:1010D0003197EE19FF09D8011596FC93EE931497FA
:1010E000C801BF010E94F300F8018081918100973F
:1010F00019F0B7010E943C16A1960FB6F894DEBF16
:101100000FBECDBFCF91DF911F910F91FF90EF9058
:101110000895EF92FF920F931F93DF93CF93CDB774
:10112000DEB7A1970FB6F894DEBF0FBECDBF8C011E
:101130009A0180E090E07E010894E11CF11CA70177
:101140000E94EF16F70101900020E9F73197EE19A0
:10115000FF09D8011596FC93EE931497C801BF01BF
:101160000E94F300F80180819181009719F0B70186
:101170000E943C16A1960FB6F894DEBF0FBECDBFFD
:10118000CF91DF911F910F91FF90EF900895EF9213
:10119000FF920F931F93DF93CF93CDB7DEB7A19745
:1011A0000FB6F894DEBF0FBECDBF8C019A0180E070
:1011B00090E07E010894E11CF11CA7010E94EF164B
:1011C000F70101900020E9F73197EE19FF09D801E6
:1011D0001596FC93EE931497C801BF010E94F3008B
:1011E000F80180819181009719F0B7010E943C16A7
:1011F000A1960FB6F894DEBF0FBECDBFCF91DF91A1
:101200001F910F91FF90EF9008950F931F93CF932D
:10121000DF938C01EB016115710511F4C3EED1E090
:10122000FE0101900020E9F73197EC1BFD0BD8017E
:101230001596FC93EE931497C801BF010E94F3002A
:10124000F80180819181009719F0BE010E943C163F
:10125000DF91CF911F910F910895AF92BF92CF92DE
:10126000DF92EF92FF920F931F93CF93DF93B82EED
:10127000A92E6B01C82FD92FFB0160817181CE018E
:101280000E940509EE24FF2410C0088119810E0D6B
:101290001F1DF8018081992787FD90950E94B5193F
:1012A000F80180830894E11CF11CF601848195818A
:1012B000E816F90650F38B2D9A2DDF91CF911F91EF
:1012C0000F91FF90EF90DF90CF90BF90AF90089577
:1012D000AF92BF92CF92DF92EF92FF920F931F9344
:1012E000CF93DF93B82EA92E6B01C82FD92FFB0106
:1012F00060817181CE010E940509EE24FF2410C097
:10130000088119810E0D1F1DF8018081992787FD25
:1013100090950E94AD19F80180830894E11CF11C9E
:10132000F60184819581E816F90650F38B2D9A2DEC
:10133000DF91CF911F910F91FF90EF90DF90CF90B1
:10134000BF90AF900895EF92FF920F931F93DF939A
:10135000CF93CDB7DEB72C970FB6F894DEBF0FBE94
:10136000CDBFFC017B018617970711F401E029C06E
:1013700024813581DB0114968D919C911597281756
:10138000390711F000E01DC0CE010196BF010E9497
:10139000680909811A81CE010796B7010E94680980
:1013A0006F817885C8010E94331600E0009709F428
:1013B00001E0CE0107960E949E03CE0101960E9495
:1013C0009E03802F2C960FB6F894DEBF0FBECDBFC4
:1013D000CF91DF911F910F91FF90EF900895CF92E1
:1013E000DF92EF92FF921F93CF93DF936C017B010B
:1013F000B9012417350710F4BA01A901D7011496D1
:101400008D919C911597EB018617970708F4EC01D5
:10141000D701ED91FC911197EC0FFD1F1081108207
:101420006D917C91640F751FC6010E940509D7015B
:10143000ED91FC91EC0FFD1F1083C601DF91CF9160
:101440001F91FF90EF90DF90CF9008950F931F931F
:101450008C01FB01248135810E94EF09C8011F9195
:101460000F9108958F929F92AF92BF92CF92DF9289
:10147000EF92FF920F931F93DF93CF9300D000D092
:1014800000D0CDB7DEB75C016B01DB0114968D9106
:101490009C9115970097A1F101974817590780F182
:1014A000F501848195814817590750F5ED91FC911C
:1014B00000817A014E010894811C911C1FC0D50146
:1014C000ED91FC91EE0DFF1D80818017A1F4F601D6
:1014D000248135812E0D3F1DC401B501A7010E9455
:1014E000EF09C401B6010E94B106182FC4010E9481
:1014F0009E03112341F40894E108F108F7FEDFCFC1
:10150000EE24EA94FE2CC70126960FB6F894DEBFAF
:101510000FBECDBFCF91DF911F910F91FF90EF9044
:10152000DF90CF90BF90AF909F908F900895FC0177
:10153000DB014481558114968D919C911597481B30
:10154000590BCF010E94320A0895AF92BF92CF92F9
:10155000DF92EF92FF920F931F93DF93CF9300D010
:1015600000D000D0CDB7DEB75C018B01DB016D91FF
:101570007C916115710521F4B8010E94D50742C024
:10158000CE0101960E940509F801E480F580CC2483
:10159000DD2410C0D801ED91FC91EC0DFD1D808182
:1015A000992787FD90950E94A519892B31F0089401
:1015B000C11CD11CCE14DF0468F3ED80FE800DC089
:1015C000D801ED91FC91EE0DFF1D8081992787FDDB
:1015D00090950E94A519892B31F00894E108F10833
:1015E000CE14DF0468F30894E11CF11CC5018E01E0
:1015F0000F5F1F4FB801A60197010E94EF09C801B4
:101600000E949E03C50126960FB6F894DEBF0FBE5A
:10161000CDBFCF91DF911F910F91FF90EF90DF90A1
:10162000CF90BF90AF9008952F923F924F925F92CC
:101630006F927F928F929F92AF92BF92CF92DF92E2
:10164000EF92FF920F931F93DF93CF93CDB7DEB747
:1016500068970FB6F894DEBF0FBECDBF3C01FB010B
:101660002A011901608171816115710521F4BF01A1
:101670000E94D5075AC07E010894E11CF11CC701E5
:101680000E9405098E01095F1F4FC80163EE71E0DA
:101690000E940509D02EC12E3DE0832E912C8C0E88
:1016A0009D1E23E1A22EB12CAC0EBD1E24C0C40190
:1016B000B70140E050E098010E94EF098D2D9C2D6C
:1016C000B4010E946A07C4010E949E038D2D9C2DC7
:1016D000B1010E946A07F20144815581400F511FF8
:1016E000C501B7010E94260AC701B5010E94A507DE
:1016F000C5010E949E03C701B2010E9489068C01A8
:10170000FFEF8F3F9F0799F68D2D9C2DB7010E940B
:101710006A07C3016D2D7C2D0E94D5078D2D9C2D50
:101720000E949E03C7010E949E03C30168960FB6E4
:10173000F894DEBF0FBECDBFCF91DF911F910F9107
:10174000FF90EF90DF90CF90BF90AF909F908F90E1
:101750007F906F905F904F903F902F900895DF9211
:10176000EF92FF920F931F93DF93CF9300D000D09F
:1017700000D0CDB7DEB77C01FB01142FD22E6081E3
:1017800071816115710521F4BF010E94D5071CC04C
:10179000CE0101960E94050989819A81012F1127A6
:1017A00007FD109501C0D082B8010E942816FC01E7
:1017B0000097C9F7C7018E010F5F1F4FB8010E9444
:1017C000D507C8010E949E03C70126960FB6F8945C
:1017D000DEBF0FBECDBFCF91DF911F910F91FF9064
:1017E000EF90DF9008950F931F93CF93DF938C01B9
:1017F000EB016115710511F4C3EED1E0FE0101901A
:101800000020E9F73197EC1BFD0BD8011596FC93EE
:10181000EE931497C801BF010E94F300F801808184
:101820009181009719F0BE010E943C16DF91CF9183
:101830001F910F910895EF92FF920F931F93DF93E3
:10184000CF93CDB7DEB7A1970FB6F894DEBF0FBE2A
:10185000CDBF8C01CB01BA017E010894E11CF11CC3
:10186000A7010E94A616F70101900020E9F7319721
:10187000EE19FF09D8011596FC93EE931497C80151
:10188000BF010E94F300F80180819181009719F057
:10189000B7010E943C16A1960FB6F894DEBF0FBEAA
:1018A000CDBFCF91DF911F910F91FF90EF900895E1
:1018B000EF92FF920F931F93DF93CF93CDB7DEB7D5
:1018C000A1970FB6F894DEBF0FBECDBF8C01CB0140
:1018D000BA017E010894E11CF11CA7010E94A61622
:1018E000F70101900020E9F73197EE19FF09D801BF
:1018F0001596FC93EE931497C801BF010E94F30064
:10190000F80180819181009719F0B7010E943C167F
:10191000A1960FB6F894DEBF0FBECDBFCF91DF9179
:101920001F910F91FF90EF900895EF92FF920F9308
:101930001F93DF93CF93CDB7DEB7A1970FB6F8947F
:10194000DEBF0FBECDBF8C01CB017E010894E11C30
:10195000F11CB7010E948516F70101900020E9F7FC
:101960003197EE19FF09D8011596FC93EE93149761
:10197000C801BF010E94F300F801808191810097A6
:1019800019F0B7010E943C16A1960FB6F894DEBF7D
:101990000FBECDBFCF91DF911F910F91FF90EF90C0
:1019A0000895EF92FF920F931F93DF93CF93CDB7DC
:1019B000DEB7A1970FB6F894DEBF0FBECDBF8C0186
:1019C000CB017E010894E11CF11CB7010E94851631
:1019D000F70101900020E9F73197EE19FF09D801CE
:1019E0001596FC93EE931497C801BF010E94F30073
:1019F000F80180819181009719F0B7010E943C168F
:101A0000A1960FB6F894DEBF0FBECDBFCF91DF9188
:101A10001F910F91FF90EF9008951F920F920FB6B4
:101A20000F9211242F933F938F939F93AF93BF9364
:101A300080919B0290919C02A0919D02B0919E0288
:101A400030919F020196A11DB11D232F2D5F2D37CF
:101A500020F02D570196A11DB11D20939F02809368
:101A60009B0290939C02A0939D02B0939E02809152
:101A7000970290919802A0919902B0919A020196D2
:101A8000A11DB11D8093970290939802A093990293
:101A9000B0939A02BF91AF919F918F913F912F91F7
:101AA0000F900FBE0F901F9018958FB7F89420914C
:101AB0009B0230919C0240919D0250919E028FBFEB
:101AC000B901CA0108959FB7F89420919702309107
:101AD00098024091990250919A0286B5A89B06C03F
:101AE0008F3F21F02F5F3F4F4F4F5F4F9FBF542FCE
:101AF000432F322F2227280F311D411D511D82E017
:101B0000220F331F441F551F8A95D1F7B901CA010F
:101B100008959B01AC017FB7F89480919702909152
:101B20009802A0919902B0919A0266B5A89B05C04F
:101B30006F3F19F00196A11DB11D7FBFBA2FA92FCC
:101B4000982F8827860F911DA11DB11D62E0880F77
:101B5000991FAA1FBB1F6A95D1F7BC012DC0FFB703
:101B6000F8948091970290919802A0919902B09177
:101B70009A02E6B5A89B05C0EF3F19F00196A11D9A
:101B8000B11DFFBFBA2FA92F982F88278E0F911D47
:101B9000A11DB11DE2E0880F991FAA1FBB1FEA9586
:101BA000D1F7861B970B885E9340C8F221503040D6
:101BB0004040504068517C4F211531054105510589
:101BC00071F60895019739F0880F991F880F991FB2
:101BD00002970197F1F70895789484B5826084BDE7
:101BE00084B5816084BD85B5826085BD85B5816021
:101BF00085BDEEE6F0E0808181608083E1E8F0E081
:101C00001082808182608083808181608083E0E8AF
:101C1000F0E0808181608083E1EBF0E0808184608E
:101C20008083E0EBF0E0808181608083EAE7F0E090
:101C300080818460808380818260808380818160F4
:101C400080838081806880831092C1000895809392
:101C5000EA010895982F8E3008F09E509770809179
:101C6000EA018295880F880F807C892B80937C0005
:101C700080917A00806480937A0080917A0086FD5A
:101C8000FCCF2091780040917900942F80E030E0E3
:101C9000282B392BC90108951F93CF93DF93182F59
:101CA000EB0161E00E94AC0E209709F44AC0CF3FDF
:101CB000D10509F449C0E12FF0E0E255FF4F8491CE
:101CC0008330C1F0843028F4813051F08230B1F596
:101CD0000CC0863019F1873049F1843079F514C091
:101CE00084B5806884BDC7BD33C084B5806284BDBF
:101CF000C8BD2EC080918000806880938000D09302
:101D00008900C093880024C0809180008062809305
:101D10008000D0938B00C0938A001AC08091B000DD
:101D200080688093B000C093B30012C08091B0006F
:101D300080628093B000C093B4000AC0C038D1055F
:101D40001CF4812F60E002C0812F61E00E94D20E5E
:101D5000DF91CF911F910895482F50E0CA01865618
:101D60009F4FFC0124914A575F4FFA0184918823C9
:101D7000C1F0E82FF0E0EE0FFF1FE859FF4FA591EB
:101D8000B491662341F49FB7F8948C9120958223F7
:101D90008C939FBF08959FB7F8948C91822B8C935E
:101DA0009FBF0895482F50E0CA0182559F4FFC0104
:101DB0002491CA0186569F4FFC0134914A575F4FC8
:101DC000FA019491992309F444C0222351F123305C
:101DD00071F0243028F42130A1F0223011F514C024
:101DE0002630B1F02730C1F02430D9F404C08091FE
:101DF00080008F7703C0809180008F7D809380006A
:101E000010C084B58F7702C084B58F7D84BD09C0B2
:101E10008091B0008F7703C08091B0008F7D809358
:101E2000B000E92FF0E0EE0FFF1FEE58FF4FA59135
:101E3000B491662341F49FB7F8948C913095832335
:101E40008C939FBF08959FB7F8948C91832B8C93AC
:101E50009FBF0895682F70E0CB0182559F4FFC0112
:101E60002491CB0186569F4FFC0144916A577F4FC6
:101E7000FB019491992319F420E030E03CC0222327
:101E800051F1233071F0243028F42130A1F02230B8
:101E900011F514C02630B1F02730C1F02430D9F448
:101EA00004C0809180008F7703C0809180008F7D77
:101EB0008093800010C084B58F7702C084B58F7D79
:101EC00084BD09C08091B0008F7703C08091B000BD
:101ED0008F7D8093B000892F90E0880F991F8458E0
:101EE0009F4FFC01A591B4918C9120E030E08423B8
:101EF00011F021E030E0C90108951F920F920FB652
:101F00000F9211242F933F934F938F939F93EF93AF
:101F1000FF934091C600E0912003F0912103319698
:101F20009F012F7730703197809122039091230386
:101F30002817390739F0E056FD4F408330932103CD
:101F400020932003FF91EF919F918F914F913F91AB
:101F50002F910F900FBE0F901F9018958F92AF92F8
:101F6000CF92DF92EF92FF920F931F93DF93CF9365
:101F7000CDB7DEB7FC018FEE91E091838083738350
:101F80006283558344833783268311870087F386D2
:101F9000E286D586C486A68687868D85808B8E85CB
:101FA000818B8F85828BCF91DF911F910F91FF9055
:101FB000EF90DF90CF90AF908F9008958F92AF9277
:101FC000CF92DF92EF92FF920F931F93DF93CF9305
:101FD000CDB7DEB7FC018FEE91E0918380837383F0
:101FE0006283558344833783268311870087F38672
:101FF000E286D586C486A68687868D85808B8E856B
:10200000818B8F85828BCF91DF911F910F91FF90F4
:10201000EF90DF90CF90AF908F900895CF93DF93A4
:10202000EC019A01AB01E885F985203081EE380793
:1020300080E0480780E0580709F449C081E090E05B
:102040000A8802C0880F991F0A94E2F7808360E033
:1020500079E08DE390E00E947019215030404040BB
:102060005040CA01B90122E030E040E050E00E9457
:102070007019EC81FD813083EE81FF812083EA8538
:10208000FB85208141E050E0CA010E8402C0880F28
:10209000991F0A94E2F7282B2083EA85FB8520818B
:1020A000CA010F8402C0880F991F0A94E2F7282BF7
:1020B0002083EA85FB858081088802C0440F551F74
:1020C0000A94E2F7842B8083DF91CF9108951082E8
:1020D00020E130E0CECFFC01A285B3854C9121E018
:1020E00030E0C901068402C0880F991F0A94E2F704
:1020F000809584238C93A285B3854C91C901078474
:1021000002C0880F991F0A94E2F7809584238C936C
:10211000A285B3858C91008802C0220F331F0A94D8
:10212000E2F7209528232C930895DC011296ED9177
:10213000FC911397E058FF4F21913191808191815B
:10214000281B390B2F773070C9010895DC011296D6
:10215000ED91FC911397EE57FF4F208131819291C1
:102160008291E058F0408217930719F42FEF3FEF68
:1021700005C0E20FF31F8081282F30E0C9010895C8
:10218000DC011296ED91FC911397DF01AE57BF4F22
:102190002D913C911197E058FF4F80819181E0583B
:1021A000F0408217930719F42FEF3FEF0BC0E20FB7
:1021B000F31F80812F5F3F4F2F7730702D933C931B
:1021C000282F30E0C9010895DC011296ED91FC91B1
:1021D0001397EE57FF4F80819181929382930895D8
:1021E000FC01A085B18521898C9190E0022E02C06E
:1021F000959587950A94E2F780FFF6CF0484F585DC
:10220000E02D608308958FEE91E0909325038093F5
:10221000240380EA92E0909327038093260385ECC1
:1022200090E0909329038093280384EC90E09093AE
:102230002B0380932A0380EC90E090932D038093EE
:102240002C0381EC90E090932F0380932E0386EC77
:1022500090E0909331038093300384E080933203C5
:1022600083E08093330387E08093340385E0809399
:10227000350381E08093360308950F931F93CF9326
:10228000DF938C01EB0109C02196D801ED91FC91FF
:102290000190F081E02DC801099568816623A1F7BE
:1022A000DF91CF911F910F910895EF92FF920F93BD
:1022B0001F93CF93DF938C017B01EA010CC0D70100
:1022C0006D917D01D801ED91FC910190F081E02D9F
:1022D000C80109952197209791F7DF91CF911F9120
:1022E0000F91FF90EF900895DC01ED91FC91028039
:1022F000F381E02D09950895CF92DF92EF92FF923E
:102300000F931F93CF93DF936C017B01C0E0D0E06C
:102310000EC0D601ED91FC9100811181C701BE0173
:102320000E94D500682FC601F80109952196F70192
:1023300084819581C817D90760F3DF91CF911F91F0
:102340000F91FF90EF90DF90CF9008952F923F92E2
:102350004F925F926F927F928F929F92AF92BF92B5
:10236000CF92DF92EF92FF920F931F93DF93CF9361
:10237000CDB7DEB7A0970FB6F894DEBF0FBECDBFC6
:102380001C016A017B01411551056105710549F484
:1023900040E350E060E070E020E030E00E94721224
:1023A00056C0882499245401422E5524662477244B
:1023B00001E010E00C0F1D1F080D191DC701B6012B
:1023C000A30192010E944E19F80160830894811CB8
:1023D000911CA11CB11CC701B601A30192010E946E
:1023E0004E19C901DA016C017D01C114D104E10467
:1023F000F104F1F681E0E82EF12CEC0EFD1EE80C64
:10240000F91C3E010894611C711CD501C40101979F
:10241000A109B1096C01C818D90816C0F601EE0D62
:10242000FF1D40814A3010F4405D01C0495C5527D2
:1024300047FD5095652F752FC10120E030E00E94C7
:1024400072120894E108F1086E147F0439F7A0961F
:102450000FB6F894DEBF0FBECDBFCF91DF911F91B5
:102460000F91FF90EF90DF90CF90BF90AF909F9033
:102470008F907F906F905F904F903F902F90089536
:10248000DC012115310541F4ED91FC910190F081C1
:10249000E02D642F099508950E94A6110895EF92EA
:1024A000FF920F931F939A017B0100E010E0B801A7
:1024B000A7010E9440121F910F91FF90EF90089585
:1024C000EF92FF920F931F939A01E62EFF2400E0F4
:1024D00010E0B801A7010E9440121F910F91FF90D8
:1024E000EF900895EF92FF920F931F93CF93DF9396
:1024F000EC017A018B012115310541F4E881F98164
:102500000190F081E02D642F09951BC02A30310520
:10251000B1F477FF10C04DE250E060E070E020E0E1
:1025200030E00E94721210950095F094E094E11C46
:10253000F11C011D111DCE01B801A7012AE00E9466
:10254000A611DF91CF911F910F91FF90EF90089509
:10255000EF92FF920F931F937B019A010027F7FCE4
:102560000095102FB801A7010E9472121F910F91C0
:10257000FF90EF900895EF92FF920F931F93E62E36
:102580009A01FF24E7FCF0940F2D1F2DB801A7013D
:102590000E9472121F910F91FF90EF9008950F9378
:1025A0001F938C014DE050E060E070E020E030E0EF
:1025B0000E947212C8014AE050E060E070E020E042
:1025C00030E00E9472121F910F9108950F931F9394
:1025D0008C010E944012C8010E94CF121F910F91DE
:1025E0000895CF92DF92EF92FF920F931F938C0189
:1025F0009A016B01EE24FF24B701A6010E9440124C
:10260000C8010E94CF121F910F91FF90EF90DF90B1
:10261000CF900895CF92DF92EF92FF920F931F9386
:102620008C019A01C62EDD24EE24FF24B701A601F9
:102630000E944012C8010E94CF121F910F91FF907B
:10264000EF90DF90CF9008950F931F938C010E941D
:102650007411C8010E94CF121F910F9108950F931A
:102660001F938C010E947C11C8010E94CF121F9100
:102670000F9108950F931F938C010E947212C8014D
:102680000E94CF121F910F910895CF92DF92EF9287
:10269000FF920F931F938C016B019A01EE24D7FCDC
:1026A000E094FE2CB701A6010E947212C8010E949C
:1026B000CF121F910F91FF90EF90DF90CF90089570
:1026C000CF92DF92EF92FF920F931F938C01C62E51
:1026D0009A01DD24C7FCD094ED2CFD2CB701A60196
:1026E0000E947212C8010E94CF121F910F91FF9099
:1026F000EF90DF90CF9008959F92AF92BF92CF92CC
:10270000DF92EF92FF920F931F93CF93DF93EC0131
:102710007A018B01922ECB01BA0120E030E040E03B
:1027200050E00E94891788236CF4CE014DE250E0FE
:1027300060E070E020E030E00E94721217FB10951C
:1027400017F9109520E030E040E05FE3AA240BC0C9
:10275000CA01B90120E030E040E251E40E948D1747
:102760009B01AC01A394A91498F3C801B7010E947E
:1027700025175B016C010E94FA177B018C01CE01C9
:10278000B801A7012AE030E00E944012992029F008
:10279000CE016FE072E00E947411C801B7010E947F
:1027A00026189B01AC01C601B5010E94241722C066
:1027B00020E030E040E251E40E94D8187B018C0117
:1027C0000E94F5175B016C01CC24B7FCC094DC2C93
:1027D000CE01B601A5012AE030E00E947212C601C6
:1027E000B5010E9428189B01AC01C801B7010E94E5
:1027F00024179A949920E1F6DF91CF911F910F91C0
:10280000FF90EF90DF90CF90BF90AF909F90089592
:102810000E947C1308950F931F938C010E947C13D8
:10282000C8010E94CF121F910F910895CF93DF939B
:10283000BC018230910510F462E070E0A091390390
:10284000B0913A03ED01E0E0F0E040E050E021C05B
:10285000888199818617970769F48A819B813097CF
:1028600019F09383828304C090933A0380933903D1
:10287000FE0134C06817790738F44115510519F085
:102880008417950708F4AC01FE018A819B819C01A5
:10289000E9012097E9F641155105A9F1CA01861B06
:1028A000970B049708F4BA01E0E0F0E02AC08D919C
:1028B0009C91119784179507F9F46417750781F4B3
:1028C00012968D919C911397309719F09383828380
:1028D00004C090933A0380933903FD0132964CC0B3
:1028E000CA01861B970BFD01E80FF91F61937193D5
:1028F00002978D939C9340C0FD01828193819C013E
:10290000D9011097A1F68091370390913803892B54
:1029100041F480911D0290911E02909338038093A0
:10292000370340911F02509120024115510541F497
:102930004DB75EB780911B0290911C02481B590B4A
:102940002091370330913803CA01821B930B8617FD
:10295000970780F0AB014E5F5F4F8417950750F0EB
:10296000420F531F5093380340933703F90161938B
:10297000719302C0E0E0F0E0CF01DF91CF910895C4
:10298000CF93DF93009709F450C0EC0122971B828C
:102990001A82A0913903B0913A03109709F140E0EF
:1029A00050E0AC17BD0708F1BB83AA83FE0121915B
:1029B0003191E20FF31FAE17BF0779F48D919C910F
:1029C0001197280F391F2E5F3F4F398328831296A6
:1029D0008D919C9113979B838A834115510571F4C6
:1029E000D0933A03C093390320C012968D919C91E5
:1029F0001397AD01009711F0DC01D3CFFA01D38317
:102A0000C28321913191E20FF31FCE17DF0769F4E2
:102A100088819981280F391F2E5F3F4FFA0131833A
:102A200020838A819B8193838283DF91CF91089554
:102A3000A0E0B0E0EEE1F5E10C94C2196C01009762
:102A400029F4CB010E9416146C01C1C08EEF882EB0
:102A50008FEF982E8C0C9D1C8601060F171F0815F2
:102A6000190508F4B2C0F401A081B181A617B70717
:102A7000B8F0A530B10508F4AAC0CD0104978617B7
:102A8000970708F4A4C01297A61BB70BF801A193EF
:102A9000B193D4016D937C93CF010E94C01497C071
:102AA0007B01EA1AFB0AEEEFFFEFEE0EFF1E360186
:102AB0006A0E7B1EC0913903D0913A0344245524F9
:102AC000AA24BB244AC0C615D705E1F5488159811F
:102AD0004E155F05B8F1CA0104978E159F05B0F435
:102AE0001296A40FB51FF401B183A0832A813B8104
:102AF0004114510431F0D20113963C932E93129756
:102B000066C030933A032093390361C08A819B8168
:102B1000F80193838283425050404E195F095183DC
:102B200040834114510431F0D20113961C930E934B
:102B3000129704C010933A0300933903F401718390
:102B4000608345C088819981A816B90608F45C01A4
:102B50002E018A819B819C01E901209709F0B3CF66
:102B6000809137039091380386159705E9F4A616EE
:102B7000B706D0F420911F023091200221153105B3
:102B800041F42DB73EB780911B0290911C02281B87
:102B9000390B02171307C8F4109338030093370357
:102BA000D4016D937C9313C0CB010E941614EC01E9
:102BB000009759F0F40140815181B6010E9414162A
:102BC000C6010E94C0146E0102C0CC24DD24C601DF
:102BD000CDB7DEB7E0E10C94DE191F93FC01992715
:102BE0008827BC01E89411911032E9F3193010F0F4
:102BF0001E30C8F31B3251F01D3249F4689406C0F0
:102C00000E94DA16610F711D811D911D11911053E3
:102C10001A30B0F33EF490958095709561957F4F92
:102C20008F4F9F4F1F910895FB01DC0102C001905F
:102C30000D9241505040D8F70895FB01DC010D90F2
:102C40000020E9F7119701900D920020E1F7089517
:102C5000FC018191861721F08823D9F799270895DF
:102C60003197CF010895FB01DC018D91019080190E
:102C70000110D9F3990B0895FB01DC0101900D922D
:102C80000020E1F70895FB01DC014150504030F095
:102C90008D910190801919F40020B9F7881B990BC8
:102CA0000895FB01DC014150504048F001900D9225
:102CB0000020C9F701C01D9241505040E0F708952F
:102CC000FC0181E090E00190061609F4CF0100209C
:102CD000D1F701970895FB0151915523A9F0BF0148
:102CE000DC014D9145174111E1F759F4CD010190F7
:102CF000002049F04D9140154111C9F3FB014111EC
:102D0000EFCF81E090E001970895FB019F01E894E7
:102D10004230C4F04532B4F44A3029F497FB1EF433
:102D2000909581959F4F642F77270E948B19805D26
:102D30008A330CF0895D8193CB010097A1F716F4DB
:102D40005DE251931082C9010C941417FA01CF93DC
:102D5000FF93EF93223044F1253234F5C22FE894EB
:102D6000CA3049F497FB3EF4909580957095619533
:102D70007F4F8F4F9F4F2C2F332744275527FF938B
:102D8000EF930E944E19EF91FF91605D6A330CF052
:102D9000695D6193B901CA01605070408040904004
:102DA00051F716F4CDE2C19310828F919F91CF918C
:102DB0000C941417592F482F372F262F660F771F83
:102DC000881F991F660F771F881F991F620F731F37
:102DD000841F951F660F771F881F991F0895FA019A
:102DE000CF93FF93EF932230CCF02532BCF4C22F67
:102DF0002C2F332744275527FF93EF930E944E191A
:102E0000EF91FF91605D6A330CF0695D6193B901E8
:102E1000CA01605070408040904051F710828F91FD
:102E20009F91CF910C941417DC01FC01672F7191D5
:102E30007723E1F7329704C07C916D9370836291A0
:102E4000AE17BF07C8F308955058BB27AA270ED066
:102E500075C166D130F06BD120F031F49F3F11F491
:102E60001EF45BC10EF4E095E7FB51C1E92F77D169
:102E700080F3BA17620773078407950718F071F497
:102E80009EF58FC10EF4E0950B2EBA2FA02D0B01ED
:102E9000B90190010C01CA01A0011124FF27591B9F
:102EA00099F0593F50F4503E68F11A16F040A22FA5
:102EB000232F342F4427585FF3CF46953795279516
:102EC000A795F0405395C9F77EF41F16BA0B620B15
:102ED000730B840BBAF09150A1F0FF0FBB1F661F5C
:102EE000771F881FC2F70EC0BA0F621F731F841F9F
:102EF00048F4879577956795B795F7959E3F08F0C5
:102F0000B3CF9395880F08F09927EE0F9795879583
:102F10000895D9D008F481E008950CD00FC107D1ED
:102F200040F0FED030F021F45F3F19F0F0C05111B5
:102F300039C1F3C014D198F39923C9F35523B1F3E0
:102F4000951B550BBB27AA2762177307840738F018
:102F50009F5F5F4F220F331F441FAA1FA9F333D077
:102F60000E2E3AF0E0E830D091505040E695001C2B
:102F7000CAF729D0FE2F27D0660F771F881FBB1FE7
:102F8000261737074807AB07B0E809F0BB0B802DC1
:102F9000BF01FF2793585F4F2AF09E3F510568F00D
:102FA000B6C000C15F3FECF3983EDCF386957795A1
:102FB0006795B795F7959F5FC9F7880F911D96950F
:102FC000879597F90895E1E0660F771F881FBB1F6B
:102FD000621773078407BA0720F0621B730B840B18
:102FE000BA0BEE1F88F7E095089504D06894B111EC
:102FF000D9C00895BCD088F09F5790F0B92F992779
:10300000B751A0F0D1F0660F771F881F991F1AF0F3
:10301000BA95C9F712C0B13081F0C3D0B1E00895BC
:10302000C0C0672F782F8827B85F39F0B93FCCF33D
:10303000869577956795B395D9F73EF490958095E9
:10304000709561957F4F8F4F9F4F0895E89409C009
:1030500097FB3EF490958095709561957F4F8F4FCB
:103060009F4F9923A9F0F92F96E9BB279395F695E1
:10307000879577956795B795F111F8CFFAF4BB0F5F
:1030800011F460FF1BC06F5F7F4F8F4F9F4F16C0C3
:10309000882311F096E911C0772321F09EE8872F4D
:1030A000762F05C0662371F096E8862F70E060E009
:1030B0002AF09A95660F771F881FDAF7880F969582
:1030C000879597F90895990F0008550FAA0BE0E826
:1030D000FEEF16161706E807F907C0F012161306DA
:1030E000E407F50798F0621B730B840B950B39F41A
:1030F0000A2661F0232B242B252B21F408950A2680
:1031000009F4A140A6958FEF811D811D089597F9BF
:103110009F6780E870E060E008959FEF80EC08957D
:1031200000240A94161617061806090608950024A6
:103130000A9412161306140605060895092E039420
:10314000000C11F4882352F0BB0F40F4BF2B11F494
:1031500060FF04C06F5F7F4F8F4F9F4F089557FDF3
:103160009058440F551F59F05F3F71F04795880FF5
:1031700097FB991F61F09F3F79F08795089512168C
:1031800013061406551FF2CF4695F1DF08C0161638
:1031900017061806991FF1CF8695710561050894E9
:1031A0000895E894BB2766277727CB0197F9089500
:1031B0000BD0C4CFB5DF28F0BADF18F0952309F0A3
:1031C000A6CFABCF1124EECFCADFA0F3959FD1F3EA
:1031D000950F50E0551F629FF001729FBB27F00DC5
:1031E000B11D639FAA27F00DB11DAA1F649F66271A
:1031F000B00DA11D661F829F2227B00DA11D621F69
:10320000739FB00DA11D621F839FA00D611D221F22
:10321000749F3327A00D611D231F849F600D211D06
:10322000822F762F6A2F11249F5750408AF0E1F0A9
:1032300088234AF0EE0FFF1FBB1F661F771F881FF2
:1032400091505040A9F79E3F510570F060CFAACF32
:103250005F3FECF3983EDCF3869577956795B795DD
:10326000F795E7959F5FC1F7FE2B880F911D969507
:10327000879597F9089597FB092E07260AD077FDC1
:1032800004D049D006D000201AF4709561957F4F84
:103290000895F6F7909581959F4F0895A1E21A2E13
:1032A000AA1BBB1BFD010DC0AA1FBB1FEE1FFF1FEA
:1032B000A217B307E407F50720F0A21BB30BE40B3A
:1032C000F50B661F771F881F991F1A9469F7609581
:1032D0007095809590959B01AC01BD01CF0108953B
:1032E00097FB092E05260ED057FD04D0D7DF0AD054
:1032F000001C38F450954095309521953F4F4F4F25
:103300005F4F0895F6F790958095709561957F4F82
:103310008F4F9F4F0895AA1BBB1B51E107C0AA1FE7
:10332000BB1FA617B70710F0A61BB70B881F991F66
:103330005A95A9F780959095BC01CD010895EE0F9F
:10334000FF1F0590F491E02D0994911116C0803271
:1033500019F089508550D0F708959111089581543E
:103360008A5108F4805E855A089591110895815616
:103370008A5108F48052855808959927882708951E
:103380002F923F924F925F926F927F928F929F9275
:10339000AF92BF92CF92DF92EF92FF920F931F9363
:1033A000CF93DF93CDB7DEB7CA1BDB0B0FB6F89414
:1033B000DEBF0FBECDBF09942A88398848885F8454
:1033C0006E847D848C849B84AA84B984C884DF80C5
:1033D000EE80FD800C811B81AA81B981CE0FD11DA9
:1033E0000FB6F894DEBF0FBECDBFED01089510E01B
:1033F000C6ECD0E004C0FE010E94A1192296C83C90
:08340000D107C9F7F894FFCFD2
:1034080051554555453A20696E7375666669636915
:10341800656E74206D656D6F727920746F20696EAA
:10342800697469616C697A652071756575652E00C6
:1034380051554555453A206572726F72206475651D
:1034480020746F20756E646573697261626C6520A3
:1034580073697A6520666F7220717565756520736A
:10346800697A652E0051554555453A20696E737540
:103478006666696369656E74206D656D6F72792023
:10348800746F20696E697469616C697A6520746506
:103498006D706F726172792071756575652E005156
:1034A800554555453A2063616E277420706F70202A
:1034B8006974656D2066726F6D2071756575653A02
:1034C80020717565756520697320656D7074792E36
:1034D80000484F4C412C20534F59204152445549E4
:1034E8004E4F00000F000000FFFF0100000000F039
:1034F800103D1155119510C010A610E410000000E1
:1035080000DD003D115511DD00DD00DD00DD002E80
:103518000000000000DD003D11551120003B0300B4
:023528000000A1
:00000001FF
