:1070000055C000006EC000006CC000006AC00000E7
:1070100068C0000066C0000064C0000062C00000DC
:1070200060C000005EC0000042C600005AC0000000
:1070300058C0000056C0000054C0000052C00000FC
:1070400050C000004EC000004CC000004AC000000C
:1070500048C0000046C0000044C0000042C000001C
:1070600040C000003EC000003CC000003AC000002C
:1070700038C0000036C0000034C0000032C000003C
:1070800030C000002EC000002CC000002AC000004C
:1070900028C0000026C0000024C0000022C000005C
:1070A00020C000001EC000001CC0000011241FBE34
:1070B000CFEFDAE0DEBFCDBF11E0A0E0B1E0EAE45F
:1070C000FEE702C005900D92A239B107D9F711E091
:1070D000A2E9B1E001C01D92A03AB107E1F753D394
:1070E000B2C68ECF8CED8EBB85EA8ABDE0E0F0E0C3
:1070F000099582E08093E90011C08091E800982F03
:107100009B7F9093E8008F778093E80003C08EB355
:10711000882351F08091E80082FFF9CF8091E80048
:1071200085FFEBCF8091F1000895282F81E08093B7
:10713000E9008091E80085FD11C08091E800982F5A
:107140009E7F9093E8008F778093E80003C08EB312
:10715000882331F08091E80080FFF9CF2093F1007F
:1071600008954F925F926F927F928F929F92AF920B
:10717000BF92CF92DF92EF92FF920F931F93CF9324
:10718000DF9382E08093E9008091E80082FF69C28A
:10719000B0DF182F8C3409F400C2803509F4FDC12A
:1071A000843529F0853429F410920F01F6C1A1DF4E
:1071B000F4C1843721F484E4B8DF80E01CC2813656
:1071C00011F489E518C28134E9F493DFF82EFF0C3D
:1071D000EE240027F7FC0095102FE0929201F09228
:1071E0009301009394011093950183DF90E0880F41
:1071F000991FAA2797FDA095BA2F8E299F29A02B0A
:10720000B12BC3C1803711F483E5F5C1833549F44F
:10721000C0E0D1E0899189DF21E0C730D207D1F702
:10722000EBC1863521F481E380DF80E3E4C183375D
:1072300031F487E87ADF85E978DF8EE1DCC18236D8
:1072400031F489E572DF80E070DF80E8D4C18536F3
:10725000B9F4E0E0F0E093E085E090935700E89522
:1072600007B600FCFDCF80935700E89507B600FCF9
:10727000FDCFEF57FF4F20E7EF35F20771F78DC1D4
:107280008C3651F436DF809599E0E1E0F0E0082E8D
:1072900090935700E89581C1823739F489E0E1E0A5
:1072A000F0E0809357008491A6C1863439F489E0D8
:1072B000E0E0F0E08093570084919DC18E3439F472
:1072C00089E0E3E0F0E080935700849194C1813538
:1072D00039F489E0E2E0F0E08093570084918BC1BB
:1072E000833471F4009192011091930102DF90E0D8
:1072F00021E0F8010C0120935700E89511244DC1BD
:10730000833679F400919201109193010160F1DECE
:1073100090E021E0F8010C0120935700E89511243A
:1073200029C18D3661F4E0919201F091930185E0DD
:1073300080935700E89507B600FCFDCF2EC182343C
:1073400019F0873609F0F0C0D4DE082FD2DEF82E0F
:10735000D0DEA82E8554823008F04CC1902F80E0FA
:10736000CF2DD0E0C82BD92B173609F057C081E1BB
:1073700080935700E89510E001E04CC0F6E4AF16AA
:1073800011F5E12FF0E08091920190919301E82BAB
:10739000F92BE4918E2FC9DE112399F0809192018F
:1073A00090919301A0919401B09195010296A11D35
:1073B000B11D8093920190939301A0939401B09397
:1073C0009501102726C08091920190919301A09180
:1073D0009401B0919501F999FECFB695A79597952F
:1073E000879592BD81BDF89A80B59FDE809192010C
:1073F00090919301A0919401B09195010296A11DE5
:10740000B11D8093920190939301A0939401B09346
:1074100095012197209709F0B1CFEEC060909201BD
:1074200070909301809094019090950126E4A216AB
:1074300009F066C083E0F30180935700E89507B632
:1074400000FCFDCF5DC0F6E4AF1669F5BB2031F15D
:1074500000919201109193014CDED82ECC24852D01
:1074600090E08C299D29F8010C0140925700E89585
:1074700011248091920190919301A0919401B09177
:1074800095010296A11DB11D8093920190939301E5
:10749000A0939401B0939501BB2430C02ADE582EEE
:1074A000BB24B3942BC0E0909201F0909301009123
:1074B0009401109195011DDEF999FECF1FBA169522
:1074C0000795F794E794F2BCE1BC80BD0FB6F89441
:1074D000FA9AF99A0FBE8091920190919301A0912E
:1074E0009401B09195010296A11DB11D8093920166
:1074F00090939301A0939401B0939501219704C0B8
:107500005524BB2444244394209709F09CCFF6E4EF
:10751000AF1609F042C085E0F30180935700E8956B
:1075200007B600FCFDCF39C0823551F4E0919201DD
:10753000F091930105911491812FF7DD802F5BC0AD
:10754000843469F5E0909201F090930100919401E8
:1075500010919501CEDDF999FECF1FBA16950795CA
:10756000F794E794F2BCE1BC80BD0FB6F894FA9AA8
:10757000F99A0FBE8091920190919301A09194018C
:10758000B09195010296A11DB11D80939201909337
:107590009301A0939401B09395018DE02CC08436A3
:1075A00039F58091920190919301A0919401B0914D
:1075B0009501F999FECFB695A7959795879592BDB8
:1075C00081BDF89A80B5B1DD8091920190919301CF
:1075D000A0919401B09195010296A11DB11D8093D7
:1075E000920190939301A0939401B093950104C0EC
:1075F0008B3111F08FE399DD81E08093E9002091D8
:10760000E8008091E800982F9E7F9093E8008F77A4
:107610008093E80025FF04C014C08EB3882309F1CD
:107620008091E80080FFF9CF8091E800982F9E7F3D
:107630009093E8008F778093E80003C08EB388238F
:1076400081F08091E80080FFF9CF82E08093E9002B
:107650008091E800982F9B7F9093E8008F7780932C
:10766000E800DF91CF911F910F91FF90EF90DF9095
:10767000CF90BF90AF909F908F907F906F905F90D2
:107680004F90089580919901813239F0823209F446
:1076900040C0803209F047C018C080919801813AFB
:1076A00009F041C08091E800877F8093E800E8E01E
:1076B000F1E081918093F10081E0EF30F807C9F7A4
:1076C0008091E800982F9E7F1EC0809198018132A2
:1076D00051F58091E800877F8093E80003C08EB366
:1076E000882309F18091E80082FFF9CFE8E0F1E01A
:1076F0008091F100819381E0EF30F807C9F7809124
:10770000E800982F9B7F9093E8008F778093E800A4
:10771000D2C180919801813231F48091E800877F55
:107720008093E800C8C1089583E061EC42E099D1FC
:1077300081E061E842E195D182E060E842E191C1F7
:107740008BD281E085BF15BE81E180935700E8951B
:10775000089584B7877F84BF88E10FB6F89480933B
:107760006000109260000FBE80E090E020E80FB64D
:10777000F89420936100809361000FBE81E085BF83
:1077800082E085BF7BC2E5DF219A6A9A729A80ED1A
:1077900097E020E931E0F9013197F1F70197D9F746
:1077A000299A80ED97E020E931E0F9013197F1F76E
:1077B0000197D9F7299880ED97E020E931E0F901A8
:1077C0003197F1F70197D9F7299A80ED97E020E9F1
:1077D00031E0F9013197F1F70197D9F72998299A02
:1077E00008C0629904C010920F01AADF7BDCB9DCEB
:1077F00018D380910F018823A1F7A2DF73DC80E00A
:1078000090E00895FA01923071F0933089F0913050
:1078100029F480E191E022E130E019C080E090E0BD
:1078200020E030E014C082E291E023E430E00FC0B9
:10783000882339F480916501282F30E085E691E0B6
:1078400006C080916901282F30E089E691E091839C
:107850008083C90108951F93DF93CF9300D0CDB7E4
:10786000DEB7E8E9F1E08091F100819381E0E03A50
:10787000F807C9F78091980190919901953009F422
:107880006CC0963040F4913079F1913070F09330C3
:1078900009F0D2C029C0983009F4A0C0993009F489
:1078A000B3C0963009F0C8C075C0803809F4C5C0AF
:1078B000823809F0C1C080919C018093E9008091D9
:1078C000EB001092E9002091E800277F2093E80068
:1078D00090E025E0969587952A95E1F78170809351
:1078E000F1001092F10085C0882319F0823009F070
:1078F000A3C08F71823009F0A0C080919A018823C3
:1079000031F520919C01277009F497C02093E9007C
:107910008091EB0080FF1BC0933021F48091EB003D
:10792000806213C08091EB0080618093EB0081E066
:1079300090E002C0880F991F2A95E2F78093EA0031
:107940001092EA008091EB0088608093EB00109227
:10795000E9008091E800877F53C0882309F06CC05C
:1079600010919A018091E800877F8093E800A3D06E
:1079700004C08EB3882309F460C08091E80080FFC2
:10798000F8CF912F9F7711F083E08EBB9068909392
:10799000E30053C08058823008F04EC080919A01B5
:1079A00090919B0160919C01AE014F5F5F4F2ADF78
:1079B000BC01009709F441C08091E800877F809363
:1079C000E80089819A819ED08091E800982F9B7F62
:1079D0009093E8008F778093E8002FC0803861F59E
:1079E0008091E800877F8093E800809196018093E2
:1079F000F1008091E800982F9E7F9093E8008F77A8
:107A00008093E80058D019C08823B1F490919A016E
:107A1000923098F48091E800877F8093E8009093FB
:107A2000960149D080919601882311F483E001C02A
:107A300084E08EBB79DE01C025DE8091E80083FF03
:107A40000AC08091EB0080628093EB008091E80097
:107A5000877F8093E8000F900F90CF91DF911F9167
:107A600008958093E9008091EB0081608093EB00A2
:107A70001092ED006093EC004093ED008091EE00D9
:107A8000881F8827881F08951092F40090E0909333
:107A9000E9001092F0001092E8008091ED008D7FD7
:107AA0008093ED008091EB008E7F8093EB009F5FD1
:107AB000973069F70895809198018823ACF403C04A
:107AC0008EB38823F1F08091E80082FFF9CF809196
:107AD000E800982F9B7F9093E8008F778093E800D1
:107AE00008958EB3882369F08091E80080FFF9CF74
:107AF0008091E800982F9E7F9093E8008F77809385
:107B0000E80008959C0140919E0150919F01461705
:107B1000570718F4D901E0E048C06115710511F06C
:107B2000AB01F8CF8091E800982F9E7F9093E800FA
:107B30008F778093E80040E050E0ECCF8091E80040
:107B400083FF02C081E008958091E80082FD36C085
:107B50008EB38823C9F18091E80080FF26C0809110
:107B6000F3009091F200782F60E0292F30E0262B6F
:107B7000372B07C08D918093F100415050402F5F0B
:107B80003F4F4115510519F02830310598F3E0E0D9
:107B90002830310509F4E1E08091E800982F9E7FBC
:107BA0009093E8008F778093E8004115510531F6F6
:107BB000EE2321F603C08EB3882331F08091E800D4
:107BC00082FFF9CF80E0089582E0089563D06AD003
:107BD0001EBA109296018AE482BF80E189BD89B500
:107BE000826089BD09B400FEFDCF8091D800982F36
:107BF0009F779093D80080688093D8008091D700B9
:107C000081608093D7008091D8008F7D8093D800C9
:107C10008091E0008B7F8093E0008091E0008E7F78
:107C20008093E0008091E1008E7F8093E10080915D
:107C3000E20081608093E2008091E100877F809381
:107C4000E1008091E20088608093E2008091D8009A
:107C500081608093D8000895B9DFE0EEF0E0808184
:107C600081608083E8EDF0E080818F77808319BCAC
:107C700080818F7E8083109297010895A7DFE8EDC1
:107C8000F0E080818061808381E080939701789427
:107C900008950895E8EDF0E080818E7F8083109252
:107CA000E20008951092DA001092E10008951F9208
:107CB0000F920FB60F9211242F933F934F935F9320
:107CC0006F937F938F939F93AF93BF93EF93FF93A4
:107CD0008091DA0080FF13C08091D80080FF0FC030
:107CE0008091DA008E7F8093DA008091D90080FF46
:107CF00004C081E08EBBCDDF02C01EBACADF809116
:107D0000E10080FF1CC08091E20080FF18C08091DC
:107D1000E1008E7F8093E1008091E2008E7F80936E
:107D2000E2008091E20080618093E2008091D800BF
:107D300080628093D80019BC85E08EBBAADF809159
:107D4000E10084FF29C08091E20084FF25C080E12A
:107D500089BD89B5826089BD09B400FEFDCF8091DF
:107D6000D8008F7D8093D8008091E1008F7E809332
:107D7000E1008091E2008F7E8093E2008091E2003A
:107D800081608093E20080919601882311F483E062
:107D900001C084E08EBB7DDF8091E10083FF22C0C3
:107DA0008091E20083FF1EC08091E100877F809375
:107DB000E10082E08EBB109296018091E1008E7FFF
:107DC0008093E1008091E2008E7F8093E2008091B9
:107DD000E20080618093E20057DE80E060E042E0F4
:107DE00040DE57DF8091E10082FF0AC08091E2000F
:107DF00082FF06C08091E1008B7F8093E10049DF24
:107E0000FF91EF91BF91AF919F918F917F916F9172
:107E10005F914F913F912F910F900FBE0F901F9048
:107E200018951F938EB3882361F01091E90010928A
:107E3000E9008091E80083FF01C00DDD1770109309
:0A7E4000E9001F910895F894FFCFA8
:107E4A004C55464143444300802500000000080188
:107E5A001201100102000008EB034A200000000191
:107E6A0000010902430002010080320904000001F6
:107E7A000202010005240010010524010301042463
:107E8A000206052406000107058303080002090407
:107E9A000100020A0000000705020210000007059F
:107EAA00810210000004030904260341005600520F
:107EBA00002000430044004300200042006F006F8E
:107ECA000074006C006F00610064006500720000BD
:027EDA000000A6
:040000030000700089
:00000001FF
